:020000040800F2
:1000000000C0002055350008611500086315000880
:100010006515000867150008691500080000000054
:100020000000000000000000000000006B15000848
:100030006D150008000000006F150008711500081C
:100040009D3500089D3500089D3500089D35000848
:100050009D3500089D3500089D3500089D35000838
:100060009D3500089D3500089D3500089D35000828
:10007000791500089D350008891500089D35000890
:100080009D3500089D3500089D3500089D35000808
:100090009D3500089D3500089D3500089D350008F8
:1000A0009D3500089D3500089D3500089D350008E8
:1000B00059120008991500089D3500089D35000863
:1000C0009D3500089D3500089D3500089D350008C8
:1000D0009D350008A91500089D350008B9150008D0
:1000E0009D3500089D3500089D3500089D350008A8
:1000F0009D3500089D3500089D3500089D35000898
:100100009D3500089D3500089D3500089D35000887
:100110009D3500089D3500089D3500089D35000877
:100120009D3500089D3500089D3500089D35000867
:1001300000000000000000000000000000000000BF
:1001400000000000000000000000000000000000AF
:10015000000000000000000000000000000000009F
:10016000000000000000000000000000000000008F
:10017000000000000000000000000000000000007F
:10018000000000000000000000000000000000006F
:10019000000000000000000000000000000000005F
:1001A000000000000000000000000000000000004F
:1001B000000000000000000000000000000000003F
:1001C000000000000000000000000000000000002F
:1001D000000000000000000000000000000000001F
:0401E0005FF8E0F1F3
:1001E4000348044B834202D0034B03B118477047C2
:1001F4007400002074000020000000000548064937
:100204000B1AD90F01EBA301491002D0034B03B120
:10021400184770477400002074000020000000009C
:1002240010B5064C237843B9FFF7DAFF044B13B13A
:100234000448AFF300800123237010BD7400002034
:1002440000000000A035000808B5044B1BB10449A8
:100254000448AFF30080BDE80840CFE70000000089
:1002640078000020A0350008014B1868704700BFD3
:100274000000002070B50D4E0D4D761BB61006D053
:100284000024013455F8043B9847A642F9D1094E9D
:10029400094D03F083F9761BB61006D0002401340F
:1002A40055F8043B9847A642F9D170BD8036000842
:1002B400803600088436000880360008F0B48607CB
:1002C40046D0541E002A3CD0CAB2034602E014F1C0
:1002D400FF3436D303F8012B9D07F8D1032C29D919
:1002E400CDB245EA05250F2C45EA054533D9A4F1DD
:1002F4001006360903F1200707EB061703F1100275
:1003040042E9045542E902551032BA42F8D1721C4E
:1003140014F00C0F03EB021204F00F0613D0331F7A
:1003240023F003030433134442F8045B9342FBD1E8
:1003340006F003042CB1C9B21C4403F8011B9C420F
:10034400FBD1F0BC704734461346002CF3D1F8E7D8
:1003540014460346C2E71A462646E0E70CB470B5D5
:100364006FF000459CB020AC54F8042B094E029168
:100374000691234602A901940795CDE9045600F09D
:1003840039F90022029B1A701CB0BDE8704002B01B
:10039400704700BF0802FFFF0EB4034630B56FF08C
:1003A40000449CB01FA951F8042B0A480A4D02933B
:1003B400069301910B46006802A90794CDE9044510
:1003C40000F018F90022029B1A701CB0BDE83040FE
:1003D40003B07047000000200802FFFF20F0030173
:1003E40010F00300C0F1000051F8043B00F1040CCC
:1003F4004FEACC0C6FF000021CBF22FA0CF213433C
:100404004FF0010C4CEA0C2C4CEA0C4CA3EB0C0204
:1004140022EA030212EACC1204BF51F8043B04306E
:10042400F4D0C2F1000102EA0102B2FA82F2C2F18E
:100434001F0200EBD20070472DE9F0478E6880461A
:100444009E420C461D461746086836D8B1F80CC0C3
:100454001CF4906F0DD135462A46394600F0A0FCB5
:100464000020A2682368961B2B44A6602360BDE885
:10047400F087D1E9041606EB460606EBD676A0EB28
:100484000109013376104B44B342324684BF1E4601
:1004940032461CF4806F12D01146404600F03AFDFB
:1004A400824600B34A46216900F004FCA38923F480
:1004B400906343F08003A38106E01E46CCE74046E8
:1004C40000F08CFD824650B1A6EB09030AEB09004B
:1004D4006661C4F810A02060A3602E46BCE72169C1
:1004E400404600F0C3FC0C23C8F80030A3894FF049
:1004F400FF3043F04003A381B9E700BF2DE9F04F7B
:10050400936883B09046002B6DD0176882460C46E2
:10051400086808378D6843E0A38913F4906F2ED0E0
:10052400D4E9041505EB4505A0EB010B05EBD575E6
:100534000BEB06006D100130A8422A4684BF054625
:100544002A465B0536D51146504600F0E3FC0028E8
:100554003AD05A462169019000F0ACFBA289019B74
:1005640022F4906242F08002A281A5EB0B0203EB1D
:100574000B006561B346354623612060A2605A468C
:10058400494600F00DFCD8F80830A2682068551BD5
:1005940058449E1BA5602060C8F808601EB3083745
:1005A40057E90296AB46002EF9D0AE42B4D2354696
:1005B400B346E4E7504600F011FD03460028D4D1C9
:1005C4002169504600F052FC0C2300224FF0FF300A
:1005D400CAF80030A38943F04003A381C8E901228B
:1005E40003B0BDE8F08F0020C8F8040003B0BDE8F4
:1005F400F08F00BF2DE9F04F8B4689899FB00C0620
:100604009046029004D5DBF81020002A00F00D81FA
:10061400002020213022059398F8003001270B9008
:100624008DF831108C4E8DF83220002B00F086802E
:10063400252B00F0F880454603E0252B00F0888048
:1006440025466B786C1C002BF7D1B4EB080A75D0E7
:100654004246534659460298FFF7EEFE01306DD0EC
:100664000B9B6A7853440B93002A67D000234FF006
:10067400FF3201340693CDE908338DF85B301C93C7
:10068400079206E02C46069B801B07FA00F01843ED
:1006940006902546052215F8011B304600F0C4FAE1
:1006A400AA460028EED1069BD90644BF20228DF825
:1006B4005B201A0748BF2B22217848BF8DF85B20A6
:1006C4002A2949D1059A11680432002905927FDB51
:1006D40009916178A51C2E2957D0604C032220462D
:1006E40000F0A2FA002869D04022069B001B02FAFF
:1006F40000F00343069305F101082B7806221946FE
:1007040057488DF8303000F08FFA002866D0554BEA
:10071400002B56D005AB00935A46534B06A90298BA
:10072400AFF300808146B9F1FF3F07D00B9B4B44E8
:100734000B9398F80030002B7FF47AAFBBF80C30A1
:100744005B064CBF4FF0FF300B981FB0BDE8F08F35
:10075400B4EB080A8AD07BE7A1F13002092A88BFEA
:10076400A246B8D8099B01E02C460135297803EB51
:10077400830302EB4303A1F13002092AAA46F3D909
:100784002E2904F102050993A7D19AF801102A2908
:100794002ED1059B0AF102001A680433002A07923D
:1007A40005939AF802100AF1030537DB2B4C8246B5
:1007B4000322204600F038FA002895D1A846554671
:1007C4009BE7059B073323F0070308330593ADE745
:1007D400494243F00203099106937AE705AB00937B
:1007E4005A46214B06A9029800F0D4F881469AE7AC
:1007F4000023A1F13002092A079301D923E05546C9
:10080400697803EB830302EB4303A1F13002092A65
:1008140005F1010AF3D9023507935EE74FF0FF3380
:100824008246079359E7444620E74021039300F0AA
:1008340071FB039BCBF80000CBF8100030B14022D1
:10084400CBF81420E4E6AA46013546E70C23029AC5
:100854004FF0FF30136078E7443600084C36000848
:1008640050360008000000003D0400082DE9F04760
:100874000C460969A56891468D42B8BF0D461560BE
:1008840094F8431006461F46DDF8208011B16A1C17
:10089400C9F80020236899065CD5D9F800200232F3
:1008A400C9F80020236813F0060F19461DD1E1682A
:1008B4008A1A002AD8BF194617DD002504F1190A3F
:1008C40005E0E368D9F800209B1AAB420CDD012354
:1008D400524639463046C047013005F10105F0D192
:1008E4004FF0FF30BDE8F087216894F843300033BF
:1008F40018BF01238A060AD53021E21882F8431072
:1009040094F845105A1C224482F84310023304F12F
:10091400430239463046C0470130E1D02368A2681B
:1009240003F00603042B21691DD08A4226DD4FF013
:100934000009521A914400251A3401E04D451DDA8C
:100944000123224639463046C047013005F10105EE
:10095400F4D1C5E713F0060F13D094F843300033F5
:1009640018BF0123D3E7D9F80000E3688A42A3EB58
:10097400000323EAE379DCDC002BDCDC0020BDE8A7
:10098400F087E168D9F800208A1A002AD8BF1946EE
:1009940093DCAAE72DE9F0430C46097E85B06E2965
:1009A40006461746984604F1430C0C986DD039D985
:1009B400732900F0F48044D9752900F00281782964
:1009C40040F00F8178232268DFF854E284F8453040
:1009D4000168150651F8043B016040F1A180D1077C
:1009E40044BF42F020022260002B00F093801022CA
:1009F400002184F8431060680028A060C0F2C6801B
:100A0400216821F004012160002B40F0A28000281D
:100A140040F0BE806546082A00F0AB80ACEB0503CD
:100A2400236141E0632900F0E3801AD8002938D01B
:100A3400582940F0D68084F845102268DFF8E4E1B4
:100A4400C6E76F2900F0BD80702940F0CA80782382
:100A54002268DFF8CCE142F02002226084F84530BD
:100A6400B6E7642902D0692940F0BB802268036894
:100A7400110603F1040557D5196805600B460029D2
:100A840059DB0A22DFF89CE1B5E7036822681D1DE3
:100A94006169056015061B6802D4500600F1BB802D
:100AA4001960002365462361CDF800803B4603AA04
:100AB40021463046FFF7DAFE013020D02A4623696A
:100AC40039463046C047013019D02268039892074E
:100AD400E36819D51A1A002A16DD002504F119094C
:100AE40004E0E36803981A1AAA420DDD01234A467A
:100AF40039463046C047013005F10105F1D14FF0C8
:100B0400FF3005B0BDE8F0839842B8BF184605B081
:100B1400BDE8F0832168102221F02001216067E7FD
:100B2400500648BF9BB25AE75106A5D5B3F9003029
:100B340005601946A3E72D2061685B42002984F80B
:100B44004300A16002DB22F0040222600A22DFF8E3
:100B5400D4E0654600E00B46B3FBF2F102FB113032
:100B64001EF80000934205F8010DF4D2082A7FF420
:100B740055AF2368DB077FF551AF626823699A425A
:100B84003FF74CAF3023013D2B7047E7002BE0D1FA
:100B94009EF8003004F1420584F842303BE70368D4
:100BA4006268191D01601D680021284600F03CF8A8
:100BB400002832D0401B60602061002384F8433059
:100BC40072E72268036812F0800F03F104051AD05B
:100BD4001B6805606F290CBF08220A22DFF844E075
:100BE40006E7012384F84210236104F14205E4E797
:100BF4000122036804F14205191D1B68016084F891
:100C040042302261D9E712F0400F0DBF1B68056026
:100C14001B880560DEE7198043E76068CCE700BF06
:100C24006C36000858360008830770B4CDB23DD046
:100C3400541E0AB30378AB421FD0431C05E014F1E1
:100C4400FF3419D30278AA4217D013F0030F1846C1
:100C540003F10103F3D1032C11D84CB30378AB4255
:100C64000BD00444431C02E00278AA4205D09C4203
:100C7400184603F10103F7D1002070BC7047024607
:100C84000E02B6B22E4346EA064613681046734077
:100C9400A3F1013121EA030313F0803F02F10402BE
:100CA400DCD1043C032C1046EFD8D6E71446D2E737
:100CB4002046E2E7844641EA000313F0030349D1E6
:100CC400403A23D30B6803604B6843608B688360AE
:100CD400CB68C3600B6903614B6943618B698361B2
:100CE400CB69C3610B6A03624B6A43628B6A83629A
:100CF400CB6AC3620B6B03634B6B43638B6B836382
:100D0400CB6BC36340304031403ADBD230320BD33B
:100D14000B6803604B6843608B688360CB68C36077
:100D240010301031103AF3D20C3205D351F8043B91
:100D340040F8043B043AF9D2043208D0D2071CBF6D
:100D440011F8013B00F8013B01D30B880380604696
:100D5400704700BF082A13D38B07B1D010F00303E8
:100D6400AED0C3F10403D21ADB071CBF11F8013B58
:100D740000F8013BA4D331F8023B20F8023B9FE783
:100D8400043AD9D3013A11F8013B00F8013BF9D2F6
:100D94000B7803704B7843708B7883706046704790
:100DA4008842F0B40DD98B1883420AD9841832B121
:100DB400224613F8014D994202F8014DF9D1F0BCD5
:100DC40070470F2A0ED80346541E002AF7D0013468
:100DD4000C44013B11F8012BA14203F8012FF9D176
:100DE400F0BC704740EA01039B073AD1A2F1100717
:100DF4003F0901F1200606EB071601F1100300F18B
:100E0400100453F8105C103344F8105C53F81C5C65
:100E1400103444F81C5C53F8185C44F8185C53F81C
:100E2400145CB34244F8145CEBD17B1C1B0112F03C
:100E34000C0F194402F00F05034415D00E46043D6F
:100E4400AD0803EB850C1C1F56F8047B44F8047FA3
:100E54006445F9D10135AD002B44294402F0030265
:100E6400B2E7541E0346B2E72A46ADE700293AD05A
:100E740038B551F8043C0C1F002BB8BFE4180546E4
:100E840000F0E4F8224B1A682AB1A2420DD9216875
:100E94006018824221D0626028461C60BDE8384058
:100EA40000F0D6B8A34203D81A465368002BF9D1F0
:100EB40011685018A04217D022D8216860188342C4
:100EC40003BFD3E900030918C4E900136360546045
:100ED4002846BDE8384000F0BBB8D2E9000201441E
:100EE400C4E90012D8E770472068014450188342CF
:100EF4001160EDD1D3E900030144C2E90013E7E72F
:100F04000C2328462B60BDE8384000F0A1B800BF90
:100F140090000020F8B5CD1C25F0030508350C2DF4
:100F240038BF0C25002D064633DBA94231D82A4FA1
:100F340000F08CF83A6852B113685B1B04D43FE0AC
:100F440023685B1B29D522465468002CF8D17968A4
:100F540000293BD02946304600F066F8431C28D0CF
:100F6400C41C24F00304A04205D0211A304600F02A
:100F74005BF801301DD02560304600F069F804F1BB
:100F84000B0020F00700231DC21A01D01B1AA35026
:100F9400F8BD0C2200203260F8BD0B2B05D8A2420C
:100FA400636811D05360E7E7144623601C4425604E
:100FB400E2E70C233046336000F04AF80020F8BD25
:100FC4000B2BF1D8144653683B60D5E7304600F04C
:100FD4002BF87860BEE700BF9000002009B3F8B595
:100FE4001446CAB106460D4600F034F8A04202D3B6
:100FF4002F463846F8BD21463046FFF78BFF07469B
:101004000028F6D022462946FFF754FE30462946EA
:10101400FFF72CFF3846F8BD2746FFF727FF384671
:10102400F8BD1146FFF776BF38B50023064C0546D8
:101034000846236001F05AFD431C00D038BD2368E4
:10104400002BFBD02B6038BDD0020020704700BFBE
:10105400704700BF51F8043C181F002BBCBF0B584D
:10106400C018704708B52021054801F0DDF90421B6
:10107400044801F0D9F94FF4FA7000F07BFDF2E76F
:1010840000100140000C0140084B1B6813F0010FD5
:101094000BD1074AD36843F08073D360034B00221B
:1010A4005A601A6842F001021A607047001000E0AA
:1010B400F0ED00E0074B5A68074B1B680749A1FB9A
:1010C40003139B0C00FB03F0024B5B689B1A8342E7
:1010D400FAD37047001000E07000002083DE1B4349
:1010E40002460378242B07D00020137833B12A2B2F
:1010F40004D001325840F8E70132F5E770470000A8
:10110400F0B587B000F030FD2349A1FB0031890917
:1011140001F5E151214BA3FB0123DB0A204DA5FB83
:1011240003252D0905EB4505A3EBC5051D4BA3FBC5
:1011340001246409A3FB04235E09C6EB0613A4EB94
:101144008306C4EB0414A1EB8404174F642200212A
:101154003846FFF7B3F803230593022304930C23C3
:101164000393124B0293124B0193E4B20094F3B233
:10117400EAB210493846FFF70FF93846FFF7B0FFD7
:1011840004463846FFF72AF922460B493844FFF74C
:1011940003F907B0F0BD00BFD34D6210C5B3A291EF
:1011A400ABAAAAAA89888888C0000020F435000860
:1011B40004360008B83500081036000808B502687F
:1011C400134B9A4200D008BD124B1B781BB1124A34
:1011D400136801331360114B1B782BB1104A136849
:1011E40001331360012B08DC0E4B1B78002BEAD073
:1011F4000D4A136801331360E5E70022074B1A70A8
:10120400074B1A600821094801F008F9ECE700BF10
:1012140000040040B8000020B4000020B00000200A
:10122400AC000020A8000020A4000020000C014015
:101234000268044B9A4200D07047034B00221A7094
:10124400FAE700BF00480040A800002008B5FFF7F7
:1012540009FF000008B51B4B1B681A6912F0010F47
:101264002CD06FF001021A61174A1368013313601E
:10127400B3F5FA7F05D3134600221A60134B0122FB
:101284001A70134A13680133136041F28732934290
:1012940014D90F4B00221A600E4B01221A700E4B08
:1012A4001B7863B90D4B1868FFF704FF012208216E
:1012B4000B4801F0B3F8084B01221A7008BDFFF780
:1012C400C5FF00BF700100209C000020B200002078
:1012D400A0000020B1000020B00000206400002025
:1012E400000C014000B591B0002309930B930C93BB
:1012F40001930293039304930593012106914FF400
:101304008032079208930A9102230D930E924FF4B0
:10131400E0130F9306A800F057FC80B90F23019344
:1013240002210291002303934FF4806204920593F7
:1013340001A800F07BFE20B911B05DF804FBFFF7B3
:1013440085FFFFF783FF000008B500F0EFFBFFF710
:10135400C9FFFFF799FE00F09BF802F0D7F801F0FF
:10136400E9FB01F08BFC01F0ABFC01F021FC3A48F5
:1013740000F078F908B1FFF769FF002211461C203C
:1013840001F05AFB1C2001F08BFB344800F06AF991
:1013940008B1FFF75BFF012200211D2001F04CFB87
:1013A4001D2001F07DFB18E000232D4A13702D4A07
:1013B4001360012204212C4801F030F814E02B4B77
:1013C40000221A6001222021294801F027F8294B24
:1013D4001B7893B9284B1B78F3B9214B1B781BB1AD
:1013E400204B1B68042BDFDC244B1B78002BEED135
:1013F4001E4B1B68042BEADDE1E700221D4B1A702B
:101404000421194801F00AF8154B01221A70102121
:10141400174801F009F8DDE70022174B1A70202164
:10142400134800F0FBFF154B01221A70144B186887
:10143400FFF766FE134C2046FEF7D0FF82B221462A
:10144400114801F0F9FD2046FEF7C8FF82B221469B
:101454000E4801F0F1FDC0E77001002028010020D2
:10146400B8000020B4000020000C0140A4000020BB
:1014740000100140B2000020B1000020A8000020AC
:1014840098000020C000002088020020B80100203D
:101494002DE9F04188B0002404940594069407943F
:1014A4002B4B9A6942F010029A619A6902F0100279
:1014B4000092009A9A6942F020029A619A6902F0B5
:1014C40020020192019A9A6942F008029A619A698B
:1014D40002F008020292029A9A6942F004029A61A6
:1014E4009B6903F004030393039B1A4E224642F2C2
:1014F4001001304600F092FF01222021304600F016
:101504008DFF154D01220421284600F087FF224655
:101514000821284600F082FF42F2300304934FF082
:101524000108CDF8148006940227079704A93046D1
:1015340000F058FE0C230493CDF81480069407970A
:1015440004A9284600F04EFE08B0BDE8F08100BFB3
:101554000010024000100140000C0140FEE7FEE7CD
:10156400FEE7FEE7FEE770477047704708B500F0F6
:10157400EFFA08BD08B5024801F0D6F808BD00BF6F
:101584000002002008B5024801F0CEF808BD00BFF3
:101594004402002008B5024800F0A4F808BD00BFCA
:1015A4002801002008B5024801F06CFE08BD00BF08
:1015B4008802002008B5024801F064FE08BD00BF9F
:1015C400B801002082B00E4B9A6942F001029A6180
:1015D4009A6902F001020092009ADA6942F080529C
:1015E400DA61DB6903F080530193019B054A536878
:1015F40023F0E06343F00073536002B0704700BF10
:10160400001002400000014030B4036A056A25F06E
:1016140001050562846924F0F00444EA021423F00D
:101624000A030B438461036230BC704730B4036A1D
:10163400056A25F010050562846924F4704444EABF
:10164400023423F0A00343EA01138461036230BC33
:101654007047836823F070030B4343F007038360F0
:101664007047000090F83D30DBB2012B2FD10223EC
:1016740080F83D300268D36843F00103D360036807
:10168400154A934218D002F50062934214D0B3F184
:10169400804F11D0A2F5983293420DD002F58062AA
:1016A400934209D002F58062934205D01A6842F051
:1016B40001021A60002070479A6802F00702062AA5
:1016C40007D01A6842F001021A6000207047012016
:1016D40070470020704700BF002C014070477047DE
:1016E4007047704710B5044603681A6912F0020F78
:1016F40011D0DA6812F0020F0DD06FF002021A61F5
:101704000123037703689B6913F0030F70D0FFF77D
:10171400E6FF0023237723681A6912F0040F12D01E
:10172400DA6812F0040F0ED06FF004021A6102237B
:10173400237723689B6913F4407F5FD02046FFF72B
:10174400CEFF0023237723681A6912F0080F12D002
:10175400DA6812F0080F0ED06FF008021A61042341
:1017640023772368DB6913F0030F4ED02046FFF77D
:10177400B6FF0023237723681A6912F0100F12D0E2
:10178400DA6812F0100F0ED06FF010021A610823FD
:1017940023772368DB6913F4407F3DD02046FFF7AD
:1017A4009EFF0023237723681A6912F0010F03D0E8
:1017B400DA6812F0010F36D123681A6912F0800F2B
:1017C40003D0DA6812F0800F34D123681A6912F05A
:1017D400400F03D0DA6812F0400F32D123681A693F
:1017E40012F0200F03D0DA6812F0200F30D110BDB0
:1017F400FFF774FF2046FFF773FF8AE72046FFF7E1
:101804006DFF2046FFF76CFF9BE72046FFF766FF5E
:101814002046FFF765FFACE72046FFF75FFF204651
:10182400FFF75EFFBDE76FF001021A612046FFF784
:10183400C5FCC1E76FF080021A61204600F04FF941
:10184400C3E76FF040021A612046FFF74AFFC5E77D
:101854006FF020021A61204600F040F9C7E700004B
:101864000368244A904212D002F5006290420ED0DE
:10187400B0F1804F0BD0A2F59832904207D002F518
:101884008062904203D002F58062904203D123F03B
:1018940070034A681343174A904212D002F500625B
:1018A40090420ED0B0F1804F0BD0A2F59832904206
:1018B40007D002F58062904203D002F58062904224
:1018C40003D123F44073CA68134323F080034A69A5
:1018D400134303608B68C3620B688362054B9842B1
:1018E40003D003F50063984201D10B69036301231C
:1018F40043617047002C014040B310B5044690F892
:101904003D30F3B1022384F83D30214651F8040BF5
:10191400FFF7A6FF012384F8463084F83E3084F8AC
:101924003F3084F8403084F8413084F8423084F801
:10193400433084F8443084F8453084F83D30002046
:1019440010BD80F83C3001F073F9DBE701207047EB
:1019540010B4846824F47F4442EA03220A432243F5
:10196400826010BC704790F83C30012B78D010B5E1
:101974000446012380F83C30022380F83D3002689D
:10198400936823F47F4323F0770393600B68602B01
:101994004CD029D8402B54D00CD9502B22D1CA6812
:1019A40049680068FFF730FE50212068FFF751FEB8
:1019B400002005E0202B0DD009D9302B0AD00120BE
:1019C400012384F83D30002384F83C3010BD0BB172
:1019D400102B05D119462068FFF73BFE0020EFE7E6
:1019E4000120EDE70120EBE7B3F5805F34D0B3F5D8
:1019F400005F0CD1CB684A6889680068FFF7A8FFCC
:101A04002268936843F4804393600020D8E7702BE6
:101A140024D1CB684A6889680068FFF799FF226877
:101A2400936843F0770393600020C9E7CA68496864
:101A34000068FFF7FBFD60212068FFF70AFE002025
:101A4400BEE7CA6849680068FFF7DEFD40212068E8
:101A5400FFF7FFFD0020B3E70020B1E70120AFE767
:101A64000220704790F83C30012B33D030B401236E
:101A740080F83C30022380F83D3003685C689D6840
:101A840024F070040A6822435A600368124A93429D
:101A940012D002F5006293420ED0B3F1804F0BD006
:101AA400A2F59832934207D002F58062934203D0A4
:101AB40002F58062934204D125F080054A681543FB
:101AC4009D60012380F83D30002380F83C301846A7
:101AD40030BC704702207047002C014070477047AB
:101AE40010B504460E4B18784FF47A73B3FBF0F339
:101AF4000C4A1068B0FBF3F000F0E0FF68B90F2C5B
:101B040001D901200AE0002221464FF0FF3000F005
:101B140093FF054B1C60002000E0012010BD00BFB6
:101B240068000020700000206C00002008B5074AFF
:101B3400136843F010031360032000F06BFF0F20C1
:101B4400FFF7CEFFFFF73EFD002008BD0020024056
:101B5400034A1168034B1B780B441360704700BFA2
:101B64002401002068000020014B1868704700BF62
:101B74002401002038B50446FFF7F6FF0546B4F10A
:101B8400FF3F02D0044B1B781C44FFF7EDFF401BC2
:101B9400A042FAD338BD00BF6800002082B0084BD1
:101BA4001B68084AA2FB03235B0A00FB03F30193AF
:101BB40000BF019B5A1E0192002BF9D102B070475D
:101BC40070000020D34D6210002800F0F18170B540
:101BD40082B00446036813F0010F2CD0AA4B5B6853
:101BE40003F00C03042B1DD0A74B5B6803F00C031C
:101BF400082B12D06368B3F5803F41D0002B55D138
:101C040003F1804303F504331A6822F480321A6026
:101C14001A6822F480221A6037E09B4B5B6813F445
:101C2400803FE7D0984B1B6813F4003F03D06368F0
:101C3400002B00F0BF81236813F0020F75D0924B84
:101C44005B6813F00C0F5FD08F4B5B6803F00C03E1
:101C5400082B54D02369002B00F089808B4B012280
:101C64001A60FFF781FF0546874B1B6813F0020FCC
:101C740074D1FFF779FF401B0228F5D903209EE1B8
:101C8400814A136843F480331360636843B3FFF7F6
:101C94006BFF05467C4B1B6813F4003FCBD1FFF769
:101CA40063FF401B6428F5D9032088E1B3F5A02F16
:101CB40009D0754B1A6822F480321A601A6822F42B
:101CC40080221A60E1E703F18043A3F53C331A68EC
:101CD40042F480221A601A6842F480321A60D4E70F
:101CE400FFF742FF0546684B1B6813F4003FA2D080
:101CF400FFF73AFF401B6428F5D903205FE1624BEC
:101D04005B6813F4803FA5D15F4B1B6813F0020F8F
:101D140003D02369012B40F04F815B4A136823F001
:101D2400F803616943EAC1031360236813F0080FE1
:101D340032D0A369002B45D0554B01221A60FFF71E
:101D440013FF0546504B5B6A13F0020F21D1FFF7D6
:101D54000BFF401B0228F5D9032030E14A4A1368DF
:101D640023F0F803616943EAC1031360DDE7474BDD
:101D740000221A60FFF7F8FE0546434B1B6813F078
:101D8400020FD2D0FFF7F0FE401B0228F5D9032042
:101D940015E10120FFF702FF236813F0040F00F0A0
:101DA4009780394BDB6913F0805F1DD1364BDA69BC
:101DB40042F08052DA61DB6903F080530193019BA6
:101DC400012512E0324B00221A60FFF7CDFE0546D2
:101DD4002D4B5B6A13F0020FDED0FFF7C5FE401BEC
:101DE4000228F5D90320EAE000252A4B1B6813F4E6
:101DF400807F11D0E368012B22D0002B38D103F16E
:101E0400804303F504331A6A22F001021A621A6A43
:101E140022F004021A6218E01E4A136843F4807325
:101E24001360FFF7A1FE06461A4B1B6813F4807F6C
:101E3400E0D1FFF799FE801B6428F5D90320BEE0AA
:101E4400114A136A43F001031362E36873B3FFF7A3
:101E54008BFE06460C4B1B6A13F0020F37D1FFF7BB
:101E640083FE801B41F288339842F3D90320A6E015
:101E7400052B11D0044B1A6A22F001021A621A6A65
:101E840022F004021A62E0E700100240000042421D
:101E940080044242007000404D4B1A6A42F0040232
:101EA4001A621A6A42F001021A62CEE7FFF75CFE78
:101EB4000646474B1B6A13F0020F08D0FFF754FE87
:101EC400801B41F288339842F3D9032077E0E5B9C7
:101ED400E369002B72D03E4A526802F00C02082AD1
:101EE40056D0022B17D03B4B00221A60FFF73CFE62
:101EF4000446374B1B6813F0007F47D0FFF734FECE
:101F0400001B0228F5D9032059E0314AD36923F094
:101F14008053D361DCE72F4B00221A60FFF724FEC5
:101F240005462B4B1B6813F0007F06D0FFF71CFE01
:101F3400401B0228F5D9032041E0236AB3F5803F12
:101F44001AD023494B6823F47413226A606A02434B
:101F540013434B601F4B01221A60FFF705FE044632
:101F64001B4B1B6813F0007F0ED1FFF7FDFD001B18
:101F74000228F5D9032022E0154A536823F40033DC
:101F8400A1680B435360DCE7002018E0002016E052
:101F9400012B16D00E4B5B6803F48031226A914208
:101FA40011D103F47013626A93420ED1002006E04B
:101FB40001207047012002E0012000E0002002B06F
:101FC40070BD0120FBE70120F9E70120F7E700BF1E
:101FD40000100240600042420F4B5B6803F00C02A9
:101FE400082A01D00D487047C3F383420C498A5C28
:101FF40013F4803F0BD0084B5B68C3F3404309499B
:10200400CB5C064800FB02F0B0FBF3F070470648D7
:1020140000FB02F0704700BF0010024000127A007B
:10202400183600082836000800093D00002800F092
:10203400A08070B50D460446524B1B6803F007039D
:102044008B420BD24F4A136823F007030B431360F0
:10205400136803F007038B4240F08D80236813F06C
:10206400020F17D013F0040F04D0474A536843F407
:10207400E0635360236813F0080F04D0424A5368A6
:1020840043F460535360404A536823F0F003A1685B
:102094000B435360236813F0010F31D06368012BA5
:1020A40020D0022B25D0384A126812F0020F64D0D7
:1020B40035494A6822F0030213434B60FFF754FD8D
:1020C4000646314B5B6803F00C036268B3EB820F86
:1020D40016D0FFF749FD801B41F288339842F0D9AE
:1020E400032045E0284A126812F4003FE0D10120A1
:1020F4003EE0254A126812F0007FD9D1012037E072
:10210400204B1B6803F00703AB420AD91D4A13682E
:1021140023F007032B431360136803F00703AB4258
:102124002DD1236813F0040F06D0174A536823F403
:10213400E063E1680B435360236813F0080F07D092
:10214400114A536823F46053216943EAC10353607D
:10215400FFF742FF0C4B5B68C3F303130B4AD35CDA
:10216400D8400B4B18600B4B1868FFF7B9FC0020E4
:1021740070BD012070470120FAE70120F8E7012033
:10218400F6E700BF00200240001002402C36000891
:10219400700000206C000020014B1868704700BFDD
:1021A4007000002008B5FFF7F7FF044B5B68C3F32A
:1021B4000223034AD35CD84008BD00BF001002408C
:1021C4003C36000808B5FFF7E7FF044B5B68C3F330
:1021D400C223034AD35CD84008BD00BF00100240AC
:1021E4003C360008F0B482B000252C46ABE0854FA5
:1021F400BB4210D007D9844FBB420CD007F58037BF
:10220400BB4208D013E0A7F58017BB4203D007F503
:102214007027BB4207D18B68002B60D0012B59D0AB
:102224004261082503E0A7F58017BB42F3D0FF2ED7
:1022340057D88446FF2E57D8A200DCF800300F2769
:10224400974023EA070305FA02F21343CCF800305F
:102254004B6813F0805F75D06C4B9A6942F00102B1
:102264009A619B6903F001030193019BA208971CE7
:10227400674B53F827C004F003039F000F23BB40B0
:102284002CEA030C634B984234D003F580639842E4
:1022940000F0948003F58063984200F0918003F588
:1022A4008063984200F08E8003F58063984200F0CA
:1022B4008B8003F5806398421AD006231BE0CD6817
:1022C400B5E7CD680435B2E7CD680835AFE7CD682A
:1022D4000C35ACE702610825A9E70025A7E704252A
:1022E400A5E700F1040CA5E7A4F108029200A4E715
:1022F400052300E00023BB4043EA0C030232444FB1
:1023040047F822304B6813F4801F5FD0424A936829
:10231400334393604B6813F4001F5DD03E4AD36887
:102324003343D3604B6813F4003F5BD03A4A53689D
:10233400334353604B6813F4803F59D0364A1368D3
:102344001E43166001340B6833FA04F256D001229E
:10235400A24003EA020632EA0303F3D14B68122BCC
:102364003FF645AF122B3FF662AF01A757F823F0B3
:102374001B220008C3220008CD220008DF22000827
:1023840033220008332200083322000833220008D5
:1023940033220008332200083322000833220008C5
:1023A40033220008332200083322000833220008B5
:1023B40033220008C7220008D322000801239AE729
:1023C400022398E7032396E7042394E7124A9368C9
:1023D40023EA060393609DE70F4AD36823EA0603C2
:1023E400D3609FE70C4A536823EA06035360A1E7CE
:1023F400094A136823EA06061660A3E702B0F0BC94
:10240400704700BF0000221000003110001002408D
:102414000000014000080140000401400AB10161CC
:102424007047090401617047C36801EA030221EAA5
:10243400030141EA02410161704770B4066CC56B47
:102444000124B4406C60046863604368102B05D0B9
:10245400036899600368DA6070BC704703689A6027
:102464000368D960F8E7000000283AD010B40246A7
:1024740000681D4B984229D81C4B03441C49A1FBFE
:1024840003131B099B0013641A4BD363022382F8C2
:102494002130016821F47F5121F0300153689468A0
:1024A4002343D4682343146923435469234394691D
:1024B4002343D46923430B43036000209063012327
:1024C40082F8213082F8200010BC70470A4B034484
:1024D4000749A1FB03131B099B001364074BD36338
:1024E400D4E70120704700BF07040240F8FFFDBF96
:1024F400CDCCCCCC00000240F8FBFDBF0004024070
:1025040038B5044690F82000012832D0012084F820
:10251400200094F82100C0B2012804D0002384F8DC
:102524002030022038BD022084F821000020A0635E
:102534002568286820F0010028602046FFF77DFF09
:10254400E36A5BB12268136843F00E0313602268E8
:10255400136843F0010313600020E3E72268136863
:1025640023F0040313602268136843F00A03136022
:10257400EDE70220D6E790F82130DBB2022B06D03B
:1025840004238363002380F820300120704702680D
:10259400136823F00E0313600268136823F0010329
:1025A4001360036CC16B012202FA03F34B6080F8E1
:1025B4002120002380F820301846704708B590F891
:1025C4002130DBB2022B03D004238363012008BD36
:1025D4000268136823F00E0313600268136823F083
:1025E4000103136003684C4A93424ED9783A9342EC
:1025F40024D01432934230D0143293422FD0143268
:1026040093422FD0143293422FD0143293422FD0BE
:10261400143293422FD002F5627293422ED01432B8
:1026240093422DD0143293422CD01432934202D0D0
:102634004FF4803203E04FF4805200E00122374B24
:102644005A60012380F82130002380F82030436B46
:10265400002B5ED098470020B9E71022EFE74FF433
:102664008072ECE74FF48052E9E74FF48032E6E7FA
:102674004FF48012E3E74FF08072E0E70122DEE7D7
:102684001022DCE74FF48072D9E7254A934224D024
:102694001432934225D01432934224D014329342FC
:1026A40024D01432934224D01432934224D01432CE
:1026B400934224D002F56272934223D0143293429F
:1026C40022D01432934221D01432934202D04FF4D8
:1026D400803203E04FF4805200E00122114B5A6033
:1026E400AFE71022FAE74FF48072F7E74FF4805215
:1026F400F4E74FF48032F1E74FF48012EEE74FF045
:102704008072EBE70122E9E71022E7E74FF48072D9
:10271400E4E700205BE700BF8000024000040240C1
:10272400080002400000024038B5C36B1A68046810
:102734002568016C04238B40134200F09B8015F044
:10274400040F00F09780236813F0200F03D123684F
:1027540023F0040323600368AA4A934246D9783AD3
:10276400934224D01432934228D01432934227D077
:102774001432934227D01432934227D01432934216
:1027840027D01432934227D002F56272934226D0A6
:102794001432934225D01432934224D014329342FB
:1027A40002D04FF4802203E04FF4804200E0042280
:1027B400954B5A60C36A03B1984738BD4022F7E786
:1027C4004FF48062F4E74FF48042F1E74FF4802243
:1027D400EEE74FF48002EBE74FF08062E8E7042273
:1027E400E6E74022E4E74FF48062E1E7874A934258
:1027F40024D01432934225D01432934224D014327C
:10280400934224D01432934224D01432934224D0DD
:102814001432934224D002F56272934223D01432CC
:10282400934222D01432934221D01432934202D0E4
:102834004FF4802203E04FF4804200E00422744B02
:102844005A60B7E74022FAE74FF48062F7E74FF4A3
:102854008042F4E74FF48022F1E74FF48002EEE780
:102864004FF08062EBE70422E9E74022E7E74FF408
:102874008062E4E702238B40134200F0A38015F04A
:10288400020F00F09F80236813F0200F06D1236805
:1028940023F00A032360012380F821300368594A96
:1028A40093424BD9783A934224D0143293422DD098
:1028B400143293422CD0143293422CD014329342CB
:1028C4002CD0143293422CD0143293422CD002F5E3
:1028D400627293422BD0143293422AD01432934220
:1028E40029D01432934202D04FF4003203E04FF463
:1028F400005200E00222444B5A60002380F820304A
:10290400836A002B3FF459AF984756E72022F2E739
:102914004FF40072EFE74FF40052ECE74FF400324B
:10292400E9E74FF40012E6E74FF00072E3E7022212
:10293400E1E72022DFE74FF40072DCE7334A9342F9
:1029440024D01432934225D01432934224D014322A
:10295400934224D01432934224D01432934224D08C
:102964001432934224D002F56272934223D014327B
:10297400934222D01432934221D01432934202D093
:102984004FF4003203E04FF4005200E00222204BE7
:102994005A60B2E72022FAE74FF40072F7E74FF4E7
:1029A4000052F4E74FF40032F1E74FF40012EEE77F
:1029B4004FF00072EBE70222E9E72022E7E74FF449
:1029C4000072E4E7082303FA01F111423FF4F5AE83
:1029D40015F0080F3FF4F1AE236823F00E032360D3
:1029E400026CC16B012303FA02F24A60836380F82C
:1029F4002130002380F82030036B002B3FF4DDAE40
:102A04009847DAE6800002400004024008000240D1
:102A140000000240074AD36823F4E0631B041B0C44
:102A2400000200F4E060034343F0BF6343F4003367
:102A3400D360704700ED00E030B4174BDB68C3F39C
:102A44000223C3F10704042C28BF04241D1D062DF2
:102A540018D9033B4FF0FF3505FA04F421EA0401C9
:102A6400994005FA03F322EA0303194300280BDB18
:102A74000901C9B200F1604000F5614080F800131B
:102A840030BC70470023E5E700F00F000901C9B22C
:102A9400024B1954F4E700BF00ED00E014ED00E030
:102AA400002807DB00F01F02400901239340024A7B
:102AB40042F82030704700BF00E100E00138B0F177
:102AC400807F0AD2064B5860064AF02182F8231010
:102AD4000020986007221A6070470120704700BFE9
:102AE40010E000E000ED00E07047000010B5034680
:102AF4000C4A0D490D48006840B10C480068034475
:102B0400521A934206D8094A136010BD0748084C6C
:102B14000460F2E7FDF7A8FB0C2303604FF0FF30DD
:102B2400F3E700BF00C0002000040000BC00002048
:102B3400D802002000B587B00023029303930493C6
:102B440005930093019319484FF08042026041F6C7
:102B54001F42426083600122C26003618361FEF709
:102B6400CBFED0B94FF48053029302A90F48FEF76D
:102B7400FAFEA8B900230093019369460B48FEF7B7
:102B840071FF80B91C20FFF78BFF002211461C2027
:102B9400FFF752FF07B05DF804FBFEF757FBE1E7D0
:102BA400FEF754FBE6E7FEF751FBEBE7700100206C
:102BB40000B587B000230293039304930593009315
:102BC40001931948194A026041F61F42426083602A
:102BD4006322C260036180238361FEF78DFED0B956
:102BE4004FF48053029302A90F48FEF7BCFEA8B924
:102BF40000230093019369460B48FEF733FF80B925
:102C04001D20FFF74DFF022211461D20FFF714FF80
:102C140007B05DF804FBFEF719FBE1E7FEF716FBCE
:102C2400E6E7FEF713FBEBE7280100200004004071
:102C340082B00368B3F1804F04D00E4A93420DD0A2
:102C440002B0704703F50433DA6942F00102DA6135
:102C5400DB6903F001030093009BF1E7064BDA699B
:102C640042F00202DA61DB6903F002030193019B83
:102C7400E6E700BF000400400010024008B50E481B
:102C84000E4B03604FF4E133436000238360C36061
:102C940003610C2242618361C36100F09DF940B974
:102CA400002205211C20FFF7C7FE1C20FFF7F8FEB9
:102CB40008BDFEF7CBFAF3E7880200200038014094
:102CC40008B50A480A4B03604FF4165343600023C7
:102CD4008360C36003610C2242618361C36100F0BD
:102CE4007BF900B908BDFEF7B1FAFBE7B801002093
:102CF4000048004070B588B004460023049305934F
:102D04000693079303684F4A934204D04E4A934272
:102D140048D008B070BD4D4B9A6942F480429A6124
:102D24009A6902F480420092009A9A6942F004027D
:102D34009A619B6903F004030193019B4FF40073B0
:102D440004930223059303230793414E04A93046B9
:102D5400FFF748FA4FF48063049300250595069520
:102D640004A93046FFF73EFA3A483B4B0360102370
:102D7400436085608023C360056145618561C561E9
:102D8400FFF772FB58B9334BA3635C620222002144
:102D94002520FFF751FE2520FFF782FEB9E7FEF755
:102DA40055FAF0E7294BDA6942F48022DA61DA69EC
:102DB40002F480220292029A9A6942F010029A6105
:102DC4009B6903F010030393039B4FF48063049304
:102DD4000223059303230793204E04A93046FFF7EB
:102DE40001FA4FF40063049300250595069504A9A0
:102DF4003046FFF7F7F91A4A536823F0300343F0DB
:102E0400E06343F0100353601648174B036010232C
:102E1400436085608023C360056145618561C56148
:102E2400FFF722FB58B90F4BA3635C6200221146E3
:102E34002720FFF701FE2720FFF732FE69E7FEF7A0
:102E440005FAF0E700380140004800400010024055
:102E540000080140440200204400024000100140E8
:102E640000000140000200201C000240026802F140
:102E74000C0353E8003F23F0C0030C3242E8003156
:102E84000029F3D1202380F841307047026802F111
:102E94000C0353E8003F23F490730C3242E80031F2
:102EA4000029F3D1026802F1140353E8003F23F030
:102EB4000103143242E800310029F3D1036B012BE2
:102EC40005D0202380F84230002303637047026852
:102ED40002F10C0353E8003F23F010030C3242E8E4
:102EE40000310029F3D1ECE790F84130DBB2212B1B
:102EF40001D0022070478368B3F5805F17D0036A5E
:102F04005A1C02621A7803685A60C38C9BB2013B54
:102F14009BB2C3844BB90268D36823F08003D360A7
:102F24000268D36843F04003D3600020704703690C
:102F3400002BE4D1036A1B880268C3F308035360BF
:102F4400036A02330362E0E710B5044602681369BA
:102F540023F44053C1680B4313618368026913432C
:102F640042691A430168CB6823F4B05323F00C037D
:102F74001343CB600268536923F4407381690B43A4
:102F840053610268124B9A421FD0FFF70BF900EB12
:102F9400800303EB830362689200B3FBF2F20D48F3
:102FA400A0FB02314909642303FB11231B013233C3
:102FB400A0FB03235B0903F0F00202EB011203F010
:102FC4000F03216813448B6010BDFFF7FBF8DEE7A5
:102FD400003801401F85EB5160B310B5044690F8EA
:102FE400413013B3242384F841302268D36823F496
:102FF4000053D3602046FFF7A7FF2268136923F428
:10300400904313612268536923F02A0353612268B1
:10301400D36843F40053D36000206064202384F811
:10302400413084F84230606310BD80F84030FFF7CF
:1030340061FED7E70120704738B590F84130DBB224
:10304400202B30D1044600292FD00AB9012038BDE5
:1030540001628284C28400234364212084F84100F5
:10306400A06B134D8562A06B124DC562A06B124D0F
:103074000563A06B436320681346021DA06BFFF732
:103084003FFA23686FF040021A60226802F11403C9
:1030940053E8003F43F08003143242E80031002932
:1030A400F3D10020D3E70220D1E70120CFE700BF0E
:1030B400C1300008293100083731000808B503463B
:1030C400406A1B681B6813F0200F1AD10023C384C5
:1030D400026802F1140353E8003F23F08003143222
:1030E40042E800310029F3D1026802F10C0353E8ED
:1030F400003F43F040030C3242E800310029F3D191
:1031040008BDFEF795F8FBE708B50168CA6822F028
:103114004002CA60202280F84120FEF789F800208E
:1031240008BD704708B5406AFFF7FBFF08BD70474C
:10313400704710B5446A23685A6994F84130DBB289
:10314400212B10D023685A6902F0400294F84230CF
:10315400DBB2222B11D0636C43F01003636420466E
:10316400FFF7E6FF10BD02F08002002AEAD0002338
:10317400E3842046FFF77AFEE4E7002AEBD000233D
:10318400E3852046FFF782FEE5E708B5406A0023A1
:10319400C385C384FFF7CCFF08BD704790F8423065
:1031A400DBB2222B69D18368B3F5805F4FD0826A8A
:1031B400B3F5805F04D0002B56D10369002B53D1A3
:1031C40003685B681370836A01338362C38D9BB2A7
:1031D400013B9BB2C385002B51D100B583B002687B
:1031E400D36823F02003D3600268D36823F4807388
:1031F400D3600268536923F001035361202380F8EC
:10320400423000234363036B012B33D10023036358
:10321400026802F10C0353E8003F23F010030C3260
:1032240042E800310029F3D103681A6812F0100F44
:1032340006D0002201921A6801925B680193019BF7
:10324400818DFFF7AAFF002003B05DF804FB02693B
:10325400002AACD1826A03685B68C3F30803138055
:10326400836A02338362B1E703685B6803F07F0318
:103274001370A8E7FFF75BFFE5E702207047002023
:103284007047000030B583B0044602681368D06804
:10329400516913F00F0505D113F0200F02D010F07F
:1032A400200F19D12DB111F0010119D110F4907F23
:1032B40016D1216B01297DD013F0800F03D010F0BB
:1032C400800F40F0188113F0400F03D010F0400F2E
:1032D40040F0158103B030BD2046FFF75FFFF9E7EA
:1032E40013F0010F06D010F4807F03D0626C42F01B
:1032F4000102626413F0040F04D019B1626C42F04D
:103304000202626413F0020F04D019B1626C42F03D
:103314000402626413F0080F07D010F0200F00D1EC
:1033240019B1626C42F008026264626C002AD1D066
:1033340013F0200F02D010F0200F29D123685B690D
:1033440003F04003626C12F0080F00D163B320460F
:10335400FFF79CFD23685B6913F0400F20D02268BF
:1033640002F1140353E8003F23F04003143242E80F
:1033740000310029F3D1E36B73B1634A5A63E06B04
:10338400FFF71CF90028A5D0E06B436B9847A1E731
:103394002046FFF703FFD1E72046FFF7C9FE99E770
:1033A4002046FFF7C5FE95E72046FFF7C1FE002340
:1033B40063648FE713F0100F3FF47EAF10F0100F2B
:1033C4003FF47AAF00230193136801935368019388
:1033D400019B536913F0400F51D0E26B13685B6893
:1033E4009BB2002B3FF476AFA18D99427FF672AF6A
:1033F400E3859369202B37D0226802F10C0353E84C
:10340400003F23F480730C3242E800310029F3D1E9
:10341400226802F1140353E8003F23F0010314323D
:1034240042E800310029F3D1226802F1140353E881
:10343400003F23F04003143242E800310029F3D165
:10344400202384F8423000232363226802F10C0312
:1034540053E8003F23F010030C3242E80031002906
:10346400F3D1E06BFFF787F802236363A18DE38D4B
:103474009BB2C91A89B22046FFF78FFE2AE7A18DB5
:10348400E38D9BB2C91A89B2E38D9BB2002B3FF442
:1034940021AF00293FF41EAF226802F10C0353E868
:1034A400003F23F490730C3242E800300028F3D13B
:1034B400226802F1140353E8003F23F0010314329D
:1034C40042E800300028F3D1202384F8423000235E
:1034D4002363226802F10C0353E8003F23F0100336
:1034E4000C3242E800300028F3D102236363204603
:1034F400FFF753FEEEE62046FFF7F6FCEAE6204629
:10350400FFF702FEE6E600BF8F31000800B583B086
:103514000E4B5A6942F001025A615B6903F00103E0
:103524000193019B002211460C20FFF785FA0C2021
:10353400FFF7B6FA002211460E20FFF77DFA0E209F
:10354400FFF7AEFA03B05DF804FB00BF00100240C1
:10355400FFF7CAFA0B480C490C4A002302E0D4587E
:10356400C4500433C4188C42F9D3094A094C0023CB
:1035740001E013600432A242FBD3FCF77BFEFDF7AB
:10358400E3FE704700000020740000208836000825
:1035940074000020D4020020FEE70000F8B500BF4C
:1035A400F8BC08BC9E467047F8B500BFF8BC08BC20
:0435B4009E46704778
:1035B800244750524D432C2530326425303264253F
:1035C8003032642E30302C412C25732C25732C304E
:1035D8002E30302C302E30302C25303264253032CD
:1035E80064253032642C2C2C412A000031313030D3
:1035F800392E323430302C45000000003232333757
:103608002E383834302C4E00253032580D0A000040
:1036180002030405060708090A0B0C0D0E0F10100B
:103628000102000000000000000000000102030485
:10363800060708090000000001020304232D302BAF
:1036480020000000686C4C0065666745464700002E
:1036580030313233343536373839414243444546C0
:103668000000000030313233343536373839616282
:083678006364656600000000B8
:043680004D020008EF
:043684002502000813
:10368800040000200000000000000000000000000E
:103698000000000000000000000000000000000022
:1036A8000000000000000000000000000000000012
:1036B8000000000000000000000000000000000002
:1036C80000000000000000000000000000000000F2
:1036D80000000000000000000000000000000000E2
:1036E800000000008D010000010000001000000033
:0436F8000024F400B6
:040000050800355565
:00000001FF
