:020000040800F2
:1000000000C00020A1360008791500087B15000803
:100010007D1500087F15000881150008000000000C
:100020000000000000000000000000008315000830
:1000300085150008000000008715000889150008D4
:10004000E9360008E9360008E9360008E936000814
:10005000E9360008E9360008E9360008E936000804
:10006000E9360008E9360008E9360008E9360008F4
:1000700091150008E9360008A1150008E9360008C6
:10008000E9360008E9360008E9360008E9360008D4
:10009000E9360008E9360008E9360008E9360008C4
:1000A000E9360008E9360008E9360008E9360008B4
:1000B0005D120008B1150008E9360008E9360008AD
:1000C000E9360008E9360008E9360008E936000894
:1000D000E9360008C1150008E9360008D115000806
:1000E000E9360008E9360008E9360008E936000874
:1000F000E9360008E9360008E9360008E936000864
:10010000E9360008E9360008E9360008E936000853
:10011000E9360008E9360008E9360008E936000843
:10012000E9360008E9360008E9360008E936000833
:1001300000000000000000000000000000000000BF
:1001400000000000000000000000000000000000AF
:10015000000000000000000000000000000000009F
:10016000000000000000000000000000000000008F
:10017000000000000000000000000000000000007F
:10018000000000000000000000000000000000006F
:10019000000000000000000000000000000000005F
:1001A000000000000000000000000000000000004F
:1001B000000000000000000000000000000000003F
:1001C000000000000000000000000000000000002F
:1001D000000000000000000000000000000000001F
:0401E0005FF8E0F1F3
:1001E4000348044B834202D0034B03B118477047C2
:1001F4007400002074000020000000000548064937
:100204000B1AD90F01EBA301491002D0034B03B120
:10021400184770477400002074000020000000009C
:1002240010B5064C237843B9FFF7DAFF044B13B13A
:100234000448AFF300800123237010BD7400002034
:1002440000000000EC36000808B5044B1BB104495B
:100254000448AFF30080BDE80840CFE70000000089
:1002640078000020EC360008014B1868704700BF86
:100274000000002070B50D4E0D4D761BB61006D053
:100284000024013455F8043B9847A642F9D1094E9D
:10029400094D03F029FA761BB61006D00024013468
:1002A40055F8043B9847A642F9D170BDCC370008F5
:1002B400CC370008D0370008CC370008F0B48607E4
:1002C40046D0541E002A3CD0CAB2034602E014F1C0
:1002D400FF3436D303F8012B9D07F8D1032C29D919
:1002E400CDB245EA05250F2C45EA054533D9A4F1DD
:1002F4001006360903F1200707EB061703F1100275
:1003040042E9045542E902551032BA42F8D1721C4E
:1003140014F00C0F03EB021204F00F0613D0331F7A
:1003240023F003030433134442F8045B9342FBD1E8
:1003340006F003042CB1C9B21C4403F8011B9C420F
:10034400FBD1F0BC704734461346002CF3D1F8E7D8
:1003540014460346C2E71A462646E0E70CB470B5D5
:100364006FF000459CB020AC54F8042B094E029168
:100374000691234602A901940795CDE9045600F09D
:1003840039F90022029B1A701CB0BDE8704002B01B
:10039400704700BF0802FFFF0EB4034630B56FF08C
:1003A40000449CB01FA951F8042B0A480A4D02933B
:1003B400069301910B46006802A90794CDE9044510
:1003C40000F018F90022029B1A701CB0BDE83040FE
:1003D40003B07047000000200802FFFF20F0030173
:1003E40010F00300C0F1000051F8043B00F1040CCC
:1003F4004FEACC0C6FF000021CBF22FA0CF213433C
:100404004FF0010C4CEA0C2C4CEA0C4CA3EB0C0204
:1004140022EA030212EACC1204BF51F8043B04306E
:10042400F4D0C2F1000102EA0102B2FA82F2C2F18E
:100434001F0200EBD20070472DE9F0478E6880461A
:100444009E420C461D461746086836D8B1F80CC0C3
:100454001CF4906F0DD135462A46394600F0A0FCB5
:100464000020A2682368961B2B44A6602360BDE885
:10047400F087D1E9041606EB460606EBD676A0EB28
:100484000109013376104B44B342324684BF1E4601
:1004940032461CF4806F12D01146404600F03AFDFB
:1004A400824600B34A46216900F004FCA38923F480
:1004B400906343F08003A38106E01E46CCE74046E8
:1004C40000F08CFD824650B1A6EB09030AEB09004B
:1004D4006661C4F810A02060A3602E46BCE72169C1
:1004E400404600F0C3FC0C23C8F80030A3894FF049
:1004F400FF3043F04003A381B9E700BF2DE9F04F7B
:10050400936883B09046002B6DD0176882460C46E2
:10051400086808378D6843E0A38913F4906F2ED0E0
:10052400D4E9041505EB4505A0EB010B05EBD575E6
:100534000BEB06006D100130A8422A4684BF054625
:100544002A465B0536D51146504600F0E3FC0028E8
:100554003AD05A462169019000F0ACFBA289019B74
:1005640022F4906242F08002A281A5EB0B0203EB1D
:100574000B006561B346354623612060A2605A468C
:10058400494600F00DFCD8F80830A2682068551BD5
:1005940058449E1BA5602060C8F808601EB3083745
:1005A40057E90296AB46002EF9D0AE42B4D2354696
:1005B400B346E4E7504600F011FD03460028D4D1C9
:1005C4002169504600F052FC0C2300224FF0FF300A
:1005D400CAF80030A38943F04003A381C8E901228B
:1005E40003B0BDE8F08F0020C8F8040003B0BDE8F4
:1005F400F08F00BF2DE9F04F8B4689899FB00C0620
:100604009046029004D5DBF81020002A00F00D81FA
:10061400002020213022059398F8003001270B9008
:100624008DF831108C4E8DF83220002B00F086802E
:10063400252B00F0F880454603E0252B00F0888048
:1006440025466B786C1C002BF7D1B4EB080A75D0E7
:100654004246534659460298FFF7EEFE01306DD0EC
:100664000B9B6A7853440B93002A67D000234FF006
:10067400FF3201340693CDE908338DF85B301C93C7
:10068400079206E02C46069B801B07FA00F01843ED
:1006940006902546052215F8011B304600F0C4FAE1
:1006A400AA460028EED1069BD90644BF20228DF825
:1006B4005B201A0748BF2B22217848BF8DF85B20A6
:1006C4002A2949D1059A11680432002905927FDB51
:1006D40009916178A51C2E2957D0604C032220462D
:1006E40000F0A2FA002869D04022069B001B02FAFF
:1006F40000F00343069305F101082B7806221946FE
:1007040057488DF8303000F08FFA002866D0554BEA
:10071400002B56D005AB00935A46534B06A90298BA
:10072400AFF300808146B9F1FF3F07D00B9B4B44E8
:100734000B9398F80030002B7FF47AAFBBF80C30A1
:100744005B064CBF4FF0FF300B981FB0BDE8F08F35
:10075400B4EB080A8AD07BE7A1F13002092A88BFEA
:10076400A246B8D8099B01E02C460135297803EB51
:10077400830302EB4303A1F13002092AAA46F3D909
:100784002E2904F102050993A7D19AF801102A2908
:100794002ED1059B0AF102001A680433002A07923D
:1007A40005939AF802100AF1030537DB2B4C8246B5
:1007B4000322204600F038FA002895D1A846554671
:1007C4009BE7059B073323F0070308330593ADE745
:1007D400494243F00203099106937AE705AB00937B
:1007E4005A46214B06A9029800F0D4F881469AE7AC
:1007F4000023A1F13002092A079301D923E05546C9
:10080400697803EB830302EB4303A1F13002092A65
:1008140005F1010AF3D9023507935EE74FF0FF3380
:100824008246079359E7444620E74021039300F0AA
:1008340071FB039BCBF80000CBF8100030B14022D1
:10084400CBF81420E4E6AA46013546E70C23029AC5
:100854004FF0FF30136078E79037000898370008AE
:100864009C370008000000003D0400082DE9F04713
:100874000C460969A56891468D42B8BF0D461560BE
:1008840094F8431006461F46DDF8208011B16A1C17
:10089400C9F80020236899065CD5D9F800200232F3
:1008A400C9F80020236813F0060F19461DD1E1682A
:1008B4008A1A002AD8BF194617DD002504F1190A3F
:1008C40005E0E368D9F800209B1AAB420CDD012354
:1008D400524639463046C047013005F10105F0D192
:1008E4004FF0FF30BDE8F087216894F843300033BF
:1008F40018BF01238A060AD53021E21882F8431072
:1009040094F845105A1C224482F84310023304F12F
:10091400430239463046C0470130E1D02368A2681B
:1009240003F00603042B21691DD08A4226DD4FF013
:100934000009521A914400251A3401E04D451DDA8C
:100944000123224639463046C047013005F10105EE
:10095400F4D1C5E713F0060F13D094F843300033F5
:1009640018BF0123D3E7D9F80000E3688A42A3EB58
:10097400000323EAE379DCDC002BDCDC0020BDE8A7
:10098400F087E168D9F800208A1A002AD8BF1946EE
:1009940093DCAAE72DE9F0430C46097E85B06E2965
:1009A40006461746984604F1430C0C986DD039D985
:1009B400732900F0F48044D9752900F00281782964
:1009C40040F00F8178232268DFF854E284F8453040
:1009D4000168150651F8043B016040F1A180D1077C
:1009E40044BF42F020022260002B00F093801022CA
:1009F400002184F8431060680028A060C0F2C6801B
:100A0400216821F004012160002B40F0A28000281D
:100A140040F0BE806546082A00F0AB80ACEB0503CD
:100A2400236141E0632900F0E3801AD8002938D01B
:100A3400582940F0D68084F845102268DFF8E4E1B4
:100A4400C6E76F2900F0BD80702940F0CA80782382
:100A54002268DFF8CCE142F02002226084F84530BD
:100A6400B6E7642902D0692940F0BB802268036894
:100A7400110603F1040557D5196805600B460029D2
:100A840059DB0A22DFF89CE1B5E7036822681D1DE3
:100A94006169056015061B6802D4500600F1BB802D
:100AA4001960002365462361CDF800803B4603AA04
:100AB40021463046FFF7DAFE013020D02A4623696A
:100AC40039463046C047013019D02268039892074E
:100AD400E36819D51A1A002A16DD002504F119094C
:100AE40004E0E36803981A1AAA420DDD01234A467A
:100AF40039463046C047013005F10105F1D14FF0C8
:100B0400FF3005B0BDE8F0839842B8BF184605B081
:100B1400BDE8F0832168102221F02001216067E7FD
:100B2400500648BF9BB25AE75106A5D5B3F9003029
:100B340005601946A3E72D2061685B42002984F80B
:100B44004300A16002DB22F0040222600A22DFF8E3
:100B5400D4E0654600E00B46B3FBF2F102FB113032
:100B64001EF80000934205F8010DF4D2082A7FF420
:100B740055AF2368DB077FF551AF626823699A425A
:100B84003FF74CAF3023013D2B7047E7002BE0D1FA
:100B94009EF8003004F1420584F842303BE70368D4
:100BA4006268191D01601D680021284600F03CF8A8
:100BB400002832D0401B60602061002384F8433059
:100BC40072E72268036812F0800F03F104051AD05B
:100BD4001B6805606F290CBF08220A22DFF844E075
:100BE40006E7012384F84210236104F14205E4E797
:100BF4000122036804F14205191D1B68016084F891
:100C040042302261D9E712F0400F0DBF1B68056026
:100C14001B880560DEE7198043E76068CCE700BF06
:100C2400B8370008A4370008830770B4CDB23DD0AC
:100C3400541E0AB30378AB421FD0431C05E014F1E1
:100C4400FF3419D30278AA4217D013F0030F1846C1
:100C540003F10103F3D1032C11D84CB30378AB4255
:100C64000BD00444431C02E00278AA4205D09C4203
:100C7400184603F10103F7D1002070BC7047024607
:100C84000E02B6B22E4346EA064613681046734077
:100C9400A3F1013121EA030313F0803F02F10402BE
:100CA400DCD1043C032C1046EFD8D6E71446D2E737
:100CB4002046E2E7844641EA000313F0030349D1E6
:100CC400403A23D30B6803604B6843608B688360AE
:100CD400CB68C3600B6903614B6943618B698361B2
:100CE400CB69C3610B6A03624B6A43628B6A83629A
:100CF400CB6AC3620B6B03634B6B43638B6B836382
:100D0400CB6BC36340304031403ADBD230320BD33B
:100D14000B6803604B6843608B688360CB68C36077
:100D240010301031103AF3D20C3205D351F8043B91
:100D340040F8043B043AF9D2043208D0D2071CBF6D
:100D440011F8013B00F8013B01D30B880380604696
:100D5400704700BF082A13D38B07B1D010F00303E8
:100D6400AED0C3F10403D21ADB071CBF11F8013B58
:100D740000F8013BA4D331F8023B20F8023B9FE783
:100D8400043AD9D3013A11F8013B00F8013BF9D2F6
:100D94000B7803704B7843708B7883706046704790
:100DA4008842F0B40DD98B1883420AD9841832B121
:100DB400224613F8014D994202F8014DF9D1F0BCD5
:100DC40070470F2A0ED80346541E002AF7D0013468
:100DD4000C44013B11F8012BA14203F8012FF9D176
:100DE400F0BC704740EA01039B073AD1A2F1100717
:100DF4003F0901F1200606EB071601F1100300F18B
:100E0400100453F8105C103344F8105C53F81C5C65
:100E1400103444F81C5C53F8185C44F8185C53F81C
:100E2400145CB34244F8145CEBD17B1C1B0112F03C
:100E34000C0F194402F00F05034415D00E46043D6F
:100E4400AD0803EB850C1C1F56F8047B44F8047FA3
:100E54006445F9D10135AD002B44294402F0030265
:100E6400B2E7541E0346B2E72A46ADE700293AD05A
:100E740038B551F8043C0C1F002BB8BFE4180546E4
:100E840000F0E4F8224B1A682AB1A2420DD9216875
:100E94006018824221D0626028461C60BDE8384058
:100EA40000F0D6B8A34203D81A465368002BF9D1F0
:100EB40011685018A04217D022D8216860188342C4
:100EC40003BFD3E900030918C4E900136360546045
:100ED4002846BDE8384000F0BBB8D2E9000201441E
:100EE400C4E90012D8E770472068014450188342CF
:100EF4001160EDD1D3E900030144C2E90013E7E72F
:100F04000C2328462B60BDE8384000F0A1B800BF90
:100F140090000020F8B5CD1C25F0030508350C2DF4
:100F240038BF0C25002D064633DBA94231D82A4FA1
:100F340000F08CF83A6852B113685B1B04D43FE0AC
:100F440023685B1B29D522465468002CF8D17968A4
:100F540000293BD02946304600F066F8431C28D0CF
:100F6400C41C24F00304A04205D0211A304600F02A
:100F74005BF801301DD02560304600F069F804F1BB
:100F84000B0020F00700231DC21A01D01B1AA35026
:100F9400F8BD0C2200203260F8BD0B2B05D8A2420C
:100FA400636811D05360E7E7144623601C4425604E
:100FB400E2E70C233046336000F04AF80020F8BD25
:100FC4000B2BF1D8144653683B60D5E7304600F04C
:100FD4002BF87860BEE700BF9000002009B3F8B595
:100FE4001446CAB106460D4600F034F8A04202D3B6
:100FF4002F463846F8BD21463046FFF78BFF07469B
:101004000028F6D022462946FFF754FE30462946EA
:10101400FFF72CFF3846F8BD2746FFF727FF384671
:10102400F8BD1146FFF776BF38B50023064C0546D8
:101034000846236001F066FD431C00D038BD2368D8
:10104400002BFBD02B6038BDD4020020704700BFBA
:10105400704700BF51F8043C181F002BBCBF0B584D
:10106400C018704708B52021054801F0E9F90421AA
:10107400044801F0E5F94FF4FA7000F087FDF2E757
:1010840000100140000C0140084B1B6813F0010FD5
:101094000BD1074AD36843F08073D360034B00221B
:1010A4005A601A6842F001021A607047001000E0AA
:1010B400F0ED00E0074B5A68074B1B680749A1FB9A
:1010C40003139B0C00FB03F0024B5B689B1A8342E7
:1010D400FAD37047001000E07000002083DE1B4349
:1010E40002460378242B07D00020137833B12A2B2F
:1010F40004D001325840F8E70132F5E770470000A8
:10110400F0B587B000F03CFD2349A1FB003189090B
:1011140001F5E151214BA3FB0123DB0A204DA5FB83
:1011240003252D0905EB4505A3EBC5051D4BA3FBC5
:1011340001246409A3FB04235E09C6EB0613A4EB94
:101144008306C4EB0414A1EB8404174F642200212A
:101154003846FFF7B3F803230593022304930C23C3
:101164000393124B0293124B0193E4B20094F3B233
:10117400EAB210493846FFF70FF93846FFF7B0FFD7
:1011840004463846FFF72AF922460B493844FFF74C
:1011940003F907B0F0BD00BFD34D6210C5B3A291EF
:1011A400ABAAAAAA89888888C4000020403700080E
:1011B40050370008043700085C37000808B5026897
:1011C400134B9A4200D008BD124B1B781BB1124A34
:1011D400136801331360114B1B782BB1104A136849
:1011E40001331360012B08DC0E4B1B78002BEAD073
:1011F4000D4A136801331360E5E70022074B1A70A8
:10120400074B1A600821094801F014F9ECE700BF04
:1012140000040040BC000020B8000020B4000020FE
:10122400B0000020AC000020A8000020000C014009
:101234000368054A934203D0A2F57042934202D157
:10124400024B00221A70704700380140AC000020A5
:1012540008B5FFF707FF000008B51E4B1B681A69A5
:1012640012F0010F35D06FF001021A611A4A1368A7
:1012740001331360B3F5FA7F05D3134600221A60D5
:10128400164B01221A70164A13680133136041F297
:10129400873293421DD9124B00221A60114B01224E
:1012A4001A70114B1B782BB9104B1868FFF702FF0B
:1012B400002302E0FFF7CCFF01330D4A126893428A
:1012C400FAD3012208210B4801F0B4F8064B01229D
:1012D4001A7008BD740100209C000020B600002094
:1012E400A0000020B5000020B4000020640000200D
:1012F400A4000020000C014000B591B00023099324
:101304000B930C930193029303930493059301218C
:1013140006914FF48032079208930A9102230D93A9
:101324000E924FF4E0130F9306A800F059FC80B915
:101334000F23019302210291002303934FF480624F
:101344000492059301A800F07DFE20B911B05DF868
:1013540004FBFFF77DFFFFF77BFF000008B500F0FB
:10136400F1FBFFF7C9FFFFF78FFE00F09DF802F0D5
:1013740073F901F0EBFB01F08DFC01F0A5FC01F029
:1013840023FC3B4800F07AF908B1FFF761FF002223
:1013940011461C2001F05CFB1C2001F08DFB35483C
:1013A40000F06CF908B1FFF753FF012200211D2062
:1013B40001F04EFB1D2001F07FFB18E000232E4AB4
:1013C40013702E4A1360012204212D4801F032F8D3
:1013D40014E02C4B00221A60012220212A4801F03B
:1013E40029F82A4B1B7893B9294B1B78F3B9224B64
:1013F4001B781BB1214B1B68042BDFDC254B1B78AE
:10140400002BEED11F4B1B68042BEADDE1E7002221
:101414001E4B1A7004211A4801F00CF8164B0122D5
:101424001A701021184801F00BF8DDE70022184B60
:101434001A702021144800F0FDFF164B01221A7087
:10144400154B1868FFF75CFE144C2046FEF7C6FFE8
:10145400062382B22146124801F034FE2046FEF7EC
:10146400BDFF82B221460F4801F08CFEBFE700BFEA
:10147400740100202C010020BC000020B8000020D2
:10148400000C0140A800002000100140B60000201C
:10149400B5000020AC00002098000020C40000200B
:1014A4008C020020BC0100202DE9F04188B000240A
:1014B40004940594069407942B4B9A6942F0100205
:1014C4009A619A6902F010020092009A9A6942F0B5
:1014D40020029A619A6902F020020192019A9A69A3
:1014E40042F008029A619A6902F008020292029A92
:1014F4009A6942F004029A619B6903F0040303931E
:10150400039B1A4E224642F21001304600F092FF2D
:1015140001222021304600F08DFF154D01220421C7
:10152400284600F087FF22460821284600F082FF63
:1015340042F2300304934FF00108CDF8148006946E
:101544000227079704A9304600F058FE0C230493A1
:10155400CDF814800694079704A9284600F04EFE9F
:1015640008B0BDE8F08100BF001002400010014047
:10157400000C0140FEE7FEE7FEE7FEE7FEE77047EA
:101584007047704708B500F0EFFA08BD08B5024887
:1015940001F0D6F808BD00BF0402002008B50248D7
:1015A40001F0CEF808BD00BF4802002008B502488B
:1015B40000F0A4F808BD00BF2C01002008B50248C3
:1015C40001F006FF08BD00BF8C02002008B50248E8
:1015D40001F0FEFE08BD00BFBC01002082B00E4B2E
:1015E4009A6942F001029A619A6902F0010200923A
:1015F400009ADA6942F08052DA61DB6903F08053C1
:101604000193019B054A536823F0E06343F00073A0
:10161400536002B0704700BF001002400000014058
:1016240030B4036A056A25F001050562846924F073
:10163400F00444EA021423F00A030B4384610362B6
:1016440030BC704730B4036A056A25F010050562A2
:10165400846924F4704444EA023423F0A00343EA86
:1016640001138461036230BC7047836823F0700304
:101674000B4343F0070383607047000090F83D304C
:10168400DBB2012B2FD1022380F83D300268D368EE
:1016940043F00103D3600368154A934218D002F55E
:1016A4000062934214D0B3F1804F11D0A2F5983266
:1016B40093420DD002F58062934209D002F5806214
:1016C400934205D01A6842F001021A600020704764
:1016D4009A6802F00702062A07D01A6842F001024B
:1016E4001A6000207047012070470020704700BF37
:1016F400002C0140704770477047704710B504468E
:1017040003681A6912F0020F11D0DA6812F0020F9E
:101714000DD06FF002021A610123037703689B69FD
:1017240013F0030F70D0FFF7E6FF0023237723683D
:101734001A6912F0040F12D0DA6812F0040F0ED0F6
:101744006FF004021A610223237723689B6913F460
:10175400407F5FD02046FFF7CEFF00232377236826
:101764001A6912F0080F12D0DA6812F0080F0ED0BE
:101774006FF008021A61042323772368DB6913F0EE
:10178400030F4ED02046FFF7B6FF002323772368CC
:101794001A6912F0100F12D0DA6812F0100F0ED07E
:1017A4006FF010021A61082323772368DB6913F4AE
:1017B400407F3DD02046FFF79EFF00232377236818
:1017C4001A6912F0010F03D0DA6812F0010F36D152
:1017D40023681A6912F0800F03D0DA6812F0800FC0
:1017E40034D123681A6912F0400F03D0DA6812F07A
:1017F400400F32D123681A6912F0200F03D0DA683F
:1018040012F0200F30D110BDFFF774FF2046FFF710
:1018140073FF8AE72046FFF76DFF2046FFF76CFF52
:101824009BE72046FFF766FF2046FFF765FFACE71E
:101834002046FFF75FFF2046FFF75EFFBDE76FF02E
:1018440001021A612046FFF7B9FCC1E76FF080027C
:101854001A61204600F04FF9C3E76FF040021A61A5
:101864002046FFF74AFFC5E76FF020021A612046C1
:1018740000F040F9C7E700000368244A904212D000
:1018840002F5006290420ED0B0F1804F0BD0A2F569
:101894009832904207D002F58062904203D002F55C
:1018A4008062904203D123F070034A681343174ABD
:1018B400904212D002F5006290420ED0B0F1804FF7
:1018C4000BD0A2F59832904207D002F58062904284
:1018D40003D002F58062904203D123F44073CA68B6
:1018E400134323F080034A69134303608B68C36284
:1018F4000B688362054B984203D003F5006398425A
:1019040001D10B690363012343617047002C01403B
:1019140040B310B5044690F83D30F3B1022384F887
:101924003D30214651F8040BFFF7A6FF012384F84C
:10193400463084F83E3084F83F3084F8403084F8F0
:10194400413084F8423084F8433084F8443084F8D9
:10195400453084F83D30002010BD80F83C3001F063
:1019640073F9DBE70120704710B4846824F47F44E2
:1019740042EA03220A432243826010BC704790F873
:101984003C30012B78D010B50446012380F83C305C
:10199400022380F83D300268936823F47F4323F0E8
:1019A400770393600B68602B4CD029D8402B54D01C
:1019B4000CD9502B22D1CA6849680068FFF730FE61
:1019C40050212068FFF751FE002005E0202B0DD0A8
:1019D40009D9302B0AD00120012384F83D3000239B
:1019E40084F83C3010BD0BB1102B05D1194620688A
:1019F400FFF73BFE0020EFE70120EDE70120EBE7D6
:101A0400B3F5805F34D0B3F5005F0CD1CB684A687E
:101A140089680068FFF7A8FF2268936843F480434D
:101A240093600020D8E7702B24D1CB684A6889687A
:101A34000068FFF799FF2268936843F07703936087
:101A44000020C9E7CA6849680068FFF7FBFD602108
:101A54002068FFF70AFE0020BEE7CA6849680068EC
:101A6400FFF7DEFD40212068FFF7FFFD0020B3E70C
:101A74000020B1E70120AFE70220704790F83C3026
:101A8400012B33D030B4012380F83C30022380F89A
:101A94003D3003685C689D6824F070040A68224342
:101AA4005A600368124A934212D002F500629342CC
:101AB4000ED0B3F1804F0BD0A2F59832934207D0E9
:101AC40002F58062934203D002F58062934204D10E
:101AD40025F080054A6815439D60012380F83D3058
:101AE400002380F83C30184630BC70470220704711
:101AF400002C01407047704710B504460E4B18780F
:101B04004FF47A73B3FBF0F30C4A1068B0FBF3F0B4
:101B140000F0E0FF68B90F2C01D901200AE000228F
:101B240021464FF0FF3000F093FF054B1C6000206E
:101B340000E0012010BD00BF6800002070000020FC
:101B44006C00002008B5074A136843F010031360C3
:101B5400032000F06BFF0F20FFF7CEFFFFF73EFDE1
:101B6400002008BD00200240034A1168034B1B7883
:101B74000B441360704700BF280100206800002058
:101B8400014B1868704700BF2801002038B504468F
:101B9400FFF7F6FF0546B4F1FF3F02D0044B1B7874
:101BA4001C44FFF7EDFF401BA042FAD338BD00BF31
:101BB4006800002082B0084B1B68084AA2FB03237C
:101BC4005B0A00FB03F3019300BF019B5A1E0192C1
:101BD400002BF9D102B0704770000020D34D621081
:101BE400002800F0F18170B582B00446036813F058
:101BF400010F2CD0AA4B5B6803F00C03042B1DD0FF
:101C0400A74B5B6803F00C03082B12D06368B3F591
:101C1400803F41D0002B55D103F1804303F50433B9
:101C24001A6822F480321A601A6822F480221A6038
:101C340037E09B4B5B6813F4803FE7D0984B1B68FD
:101C440013F4003F03D06368002B00F0BF812368C6
:101C540013F0020F75D0924B5B6813F00C0F5FD03A
:101C64008F4B5B6803F00C03082B54D02369002BC3
:101C740000F089808B4B01221A60FFF781FF054633
:101C8400874B1B6813F0020F74D1FFF779FF401BD9
:101C94000228F5D903209EE1814A136843F4803376
:101CA4001360636843B3FFF76BFF05467C4B1B6807
:101CB40013F4003FCBD1FFF763FF401B6428F5D931
:101CC400032088E1B3F5A02F09D0754B1A6822F4DC
:101CD40080321A601A6822F480221A60E1E703F164
:101CE4008043A3F53C331A6842F480221A601A68D0
:101CF40042F480321A60D4E7FFF742FF0546684B8E
:101D04001B6813F4003FA2D0FFF73AFF401B64287E
:101D1400F5D903205FE1624B5B6813F4803FA5D1E2
:101D24005F4B1B6813F0020F03D02369012B40F0B3
:101D34004F815B4A136823F0F803616943EAC103E6
:101D44001360236813F0080F32D0A369002B45D029
:101D5400554B01221A60FFF713FF0546504B5B6A8F
:101D640013F0020F21D1FFF70BFF401B0228F5D916
:101D7400032030E14A4A136823F0F803616943EA17
:101D8400C1031360DDE7474B00221A60FFF7F8FE3A
:101D94000546434B1B6813F0020FD2D0FFF7F0FE49
:101DA400401B0228F5D9032015E10120FFF702FFAB
:101DB400236813F0040F00F09780394BDB6913F0AC
:101DC400805F1DD1364BDA6942F08052DA61DB69FB
:101DD40003F080530193019B012512E0324B002252
:101DE4001A60FFF7CDFE05462D4B5B6A13F0020F18
:101DF400DED0FFF7C5FE401B0228F5D90320EAE038
:101E040000252A4B1B6813F4807F11D0E368012B53
:101E140022D0002B38D103F1804303F504331A6A2E
:101E240022F001021A621A6A22F004021A6218E00D
:101E34001E4A136843F480731360FFF7A1FE06463D
:101E44001A4B1B6813F4807FE0D1FFF799FE801BC7
:101E54006428F5D90320BEE0114A136A43F0010354
:101E64001362E36873B3FFF78BFE06460C4B1B6AE1
:101E740013F0020F37D1FFF783FE801B41F2883342
:101E84009842F3D90320A6E0052B11D0044B1A6A1B
:101E940022F001021A621A6A22F004021A62E0E7CE
:101EA40000100240000042428004424200700040A0
:101EB4004D4B1A6A42F004021A621A6A42F0010295
:101EC4001A62CEE7FFF75CFE0646474B1B6A13F027
:101ED400020F08D0FFF754FE801B41F2883398426A
:101EE400F3D9032077E0E5B9E369002B72D03E4AC9
:101EF400526802F00C02082A56D0022B17D03B4B32
:101F040000221A60FFF73CFE0446374B1B6813F0AF
:101F1400007F47D0FFF734FE001B0228F5D90320C9
:101F240059E0314AD36923F08053D361DCE72F4B66
:101F340000221A60FFF724FE05462B4B1B6813F0A2
:101F4400007F06D0FFF71CFE401B0228F5D90320B2
:101F540041E0236AB3F5803F1AD023494B6823F448
:101F64007413226A606A024313434B601F4B0122BD
:101F74001A60FFF705FE04461B4B1B6813F0007F35
:101F84000ED1FFF7FDFD001B0228F5D9032022E046
:101F9400154A536823F40033A1680B435360DCE70C
:101FA400002018E0002016E0012B16D00E4B5B68D1
:101FB40003F48031226A914211D103F47013626AEE
:101FC40093420ED1002006E001207047012002E078
:101FD400012000E0002002B070BD0120FBE70120D9
:101FE400F9E70120F7E700BF001002406000424219
:101FF4000F4B5B6803F00C02082A01D00D487047B0
:10200400C3F383420C498A5C13F4803F0BD0084B22
:102014005B68C3F340430949CB5C064800FB02F00C
:10202400B0FBF3F07047064800FB02F0704700BFB6
:102034000010024000127A00643700087437000868
:1020440000093D00002800F0A08070B50D4604464C
:10205400524B1B6803F007038B420BD24F4A1368A1
:1020640023F007030B431360136803F007038B4249
:1020740040F08D80236813F0020F17D013F0040F83
:1020840004D0474A536843F4E0635360236813F071
:10209400080F04D0424A536843F460535360404AE3
:1020A400536823F0F003A1680B435360236813F0D3
:1020B400010F31D06368012B20D0022B25D0384A80
:1020C400126812F0020F64D035494A6822F0030204
:1020D40013434B60FFF754FD0646314B5B6803F036
:1020E4000C036268B3EB820F16D0FFF749FD801B27
:1020F40041F288339842F0D9032045E0284A126817
:1021040012F4003FE0D101203EE0254A126812F0AB
:10211400007FD9D1012037E0204B1B6803F007036F
:10212400AB420AD91D4A136823F007032B431360FB
:10213400136803F00703AB422DD1236813F0040F97
:1021440006D0174A536823F4E063E1680B435360F5
:10215400236813F0080F07D0114A536823F460531F
:10216400216943EAC1035360FFF742FF0C4B5B68EC
:10217400C3F303130B4AD35CD8400B4B18600B4BCF
:102184001868FFF7B9FC002070BD012070470120DA
:10219400FAE70120F8E70120F6E700BF002002403B
:1021A4000010024078370008700000206C00002006
:1021B400014B1868704700BF7000002008B5FFF796
:1021C400F7FF044B5B68C3F30223034AD35CD84094
:1021D40008BD00BF001002408837000808B5FFF7AB
:1021E400E7FF044B5B68C3F3C223034AD35CD840C4
:1021F40008BD00BF0010024088370008F0B482B068
:1022040000252C46ABE0854FBB4210D007D9844F44
:10221400BB420CD007F58037BB4208D013E0A7F5CA
:102224008017BB4203D007F57027BB4207D18B68E8
:10223400002B60D0012B59D04261082503E0A7F59B
:102244008017BB42F3D0FF2E57D88446FF2E57D8B1
:10225400A200DCF800300F27974023EA070305FAB1
:1022640002F21343CCF800304B6813F0805F75D052
:102274006C4B9A6942F001029A619B6903F0010375
:102284000193019BA208971C674B53F827C004F0E5
:1022940003039F000F23BB402CEA030C634B9842BB
:1022A40034D003F58063984200F0948003F5806392
:1022B400984200F0918003F58063984200F08E808C
:1022C40003F58063984200F08B8003F580639842A5
:1022D4001AD006231BE0CD68B5E7CD680435B2E714
:1022E400CD680835AFE7CD680C35ACE70261082549
:1022F400A9E70025A7E70425A5E700F1040CA5E755
:10230400A4F108029200A4E7052300E00023BB40E7
:1023140043EA0C030232444F47F822304B6813F46B
:10232400801F5FD0424A9368334393604B6813F431
:10233400001F5DD03E4AD3683343D3604B6813F427
:10234400003F5BD03A4A5368334353604B6813F4FD
:10235400803F59D0364A13681E43166001340B6817
:1023640033FA04F256D00122A24003EA020632EA0A
:102374000303F3D14B68122B3FF645AF122B3FF604
:1023840062AF01A757F823F033220008DB220008CC
:10239400E5220008F72200084B2200084B2200081F
:1023A4004B2200084B2200084B2200084B22000855
:1023B4004B2200084B2200084B2200084B22000845
:1023C4004B2200084B2200084B220008DF220008A1
:1023D400EB22000801239AE7022398E7032396E7F8
:1023E400042394E7124A936823EA060393609DE763
:1023F4000F4AD36823EA0603D3609FE70C4A536865
:1024040023EA06035360A1E7094A136823EA060690
:102414001660A3E702B0F0BC704700BF00002210B2
:10242400000031100010024000000140000801408B
:10243400000401400AB10161704709040161704759
:10244400C36801EA030221EA030141EA024101618E
:10245400704770B4066CC56B0124B4406C600468AA
:1024640063604368102B05D0036899600368DA60E1
:1024740070BC704703689A600368D960F8E700008D
:1024840000283AD010B4024600681D4B984229D85F
:102494001C4B03441C49A1FB03131B099B0013643D
:1024A4001A4BD363022382F82130016821F47F514F
:1024B40021F03001536894682343D468234314699A
:1024C40023435469234394692343D46923430B432B
:1024D400036000209063012382F8213082F82000F9
:1024E40010BC70470A4B03440749A1FB03131B09A3
:1024F4009B001364074BD363D4E70120704700BFEC
:1025040007040240F8FFFDBFCDCCCCCC0000024054
:10251400F8FBFDBF0004024038B5044690F82000E3
:10252400012832D0012084F8200094F82100C0B2A0
:10253400012804D0002384F82030022038BD022072
:1025440084F821000020A0632568286820F0010099
:1025540028602046FFF77DFFE36A5BB122681368B9
:1025640043F00E0313602268136843F00103136001
:102574000020E3E72268136823F004031360226851
:10258400136843F00A031360EDE70220D6E790F8DE
:102594002130DBB2022B06D004238363002380F8AE
:1025A4002030012070470268136823F00E03136083
:1025B4000268136823F001031360036CC16B0122EA
:1025C40002FA03F34B6080F82120002380F82030C6
:1025D4001846704708B590F82130DBB2022B03D0BF
:1025E40004238363012008BD0268136823F00E03EB
:1025F40013600268136823F00103136003684C4AF4
:1026040093424ED9783A934224D01432934230D034
:10261400143293422FD0143293422FD01432934267
:102624002FD0143293422FD0143293422FD002F57C
:10263400627293422ED0143293422DD014329342BC
:102644002CD01432934202D04FF4803203E04FF482
:10265400805200E00122374B5A60012380F8213078
:10266400002380F82030436B002B5ED09847002075
:10267400B9E71022EFE74FF48072ECE74FF4805291
:10268400E9E74FF48032E6E74FF48012E3E74FF0D6
:102694008072E0E70122DEE71022DCE74FF480726B
:1026A400D9E7254A934224D01432934225D01432D8
:1026B400934224D01432934224D01432934224D02F
:1026C4001432934224D01432934224D002F562721D
:1026D400934223D01432934222D01432934221D015
:1026E4001432934202D04FF4803203E04FF480520C
:1026F40000E00122114B5A60AFE71022FAE74FF4D1
:102704008072F7E74FF48052F4E74FF48032F1E738
:102714004FF48012EEE74FF08072EBE70122E9E715
:102724001022E7E74FF48072E4E700205BE700BF84
:102734008000024000040240080002400000024001
:1027440038B5C36B1A6804682568016C04238B4090
:10275400134200F09B8015F0040F00F0978023686B
:1027640013F0200F03D1236823F0040323600368CC
:10277400AA4A934246D9783A934224D014329342D7
:1027840028D01432934227D01432934227D01432E3
:10279400934227D01432934227D01432934227D045
:1027A40002F56272934226D01432934225D0143239
:1027B400934224D01432934202D04FF4802203E097
:1027C4004FF4804200E00422954B5A60C36A03B17F
:1027D400984738BD4022F7E74FF48062F4E74FF49E
:1027E4008042F1E74FF48022EEE74FF48002EBE7FA
:1027F4004FF08062E8E70422E6E74022E4E74FF482
:102804008062E1E7874A934224D01432934225D070
:102814001432934224D01432934224D0143293427B
:1028240024D01432934224D01432934224D002F59B
:102834006272934223D01432934222D014329342D0
:1028440021D01432934202D04FF4802203E04FF49B
:10285400804200E00422744B5A60B7E74022FAE752
:102864004FF48062F7E74FF48042F4E74FF480229C
:10287400F1E74FF48002EEE74FF08062EBE70422C9
:10288400E9E74022E7E74FF48062E4E702238B4064
:10289400134200F0A38015F0020F00F09F8023681C
:1028A40013F0200F06D1236823F00A0323600123C9
:1028B40080F821300368594A93424BD9783A9342BD
:1028C40024D0143293422DD0143293422CD014329B
:1028D40093422CD0143293422CD0143293422CD0F5
:1028E400143293422CD002F5627293422BD01432EC
:1028F40093422AD01432934229D01432934202D004
:102904004FF4003203E04FF4005200E00222444B43
:102914005A60002380F82030836A002B3FF459AFBB
:10292400984756E72022F2E74FF40072EFE74FF49E
:102934000052ECE74FF40032E9E74FF40012E6E707
:102944004FF00072E3E70222E1E72022DFE74FF4D1
:102954000072DCE7334A934224D01432934225D0E8
:102964001432934224D01432934224D0143293422A
:1029740024D01432934224D01432934224D002F54A
:102984006272934223D01432934222D0143293427F
:1029940021D01432934202D04FF4003203E04FF4BA
:1029A400005200E00222204B5A60B2E72022FAE7EC
:1029B4004FF40072F7E74FF40052F4E74FF400329B
:1029C400F1E74FF40012EEE74FF00072EBE702225A
:1029D400E9E72022E7E74FF40072E4E7082303FA6B
:1029E40001F111423FF4F5AE15F0080F3FF4F1AEDA
:1029F400236823F00E032360026CC16B012303FAE6
:102A040002F24A60836380F82130002380F820308A
:102A1400036B002B3FF4DDAE9847DAE680000240FA
:102A2400000402400800024000000240074AD36844
:102A340023F4E0631B041B0C000200F4E060034376
:102A440043F0BF6343F40033D360704700ED00E00C
:102A540030B4174BDB68C3F30223C3F10704042C1F
:102A640028BF04241D1D062D18D9033B4FF0FF3544
:102A740005FA04F421EA0401994005FA03F322EA71
:102A84000303194300280BDB0901C9B200F16040BC
:102A940000F5614080F8001330BC70470023E5E77F
:102AA40000F00F000901C9B2024B1954F4E700BF4A
:102AB40000ED00E014ED00E0002807DB00F01F0249
:102AC400400901239340024A42F82030704700BF76
:102AD40000E100E00138B0F1807F0AD2064B586073
:102AE400064AF02182F823100020986007221A6019
:102AF40070470120704700BF10E000E000ED00E0E7
:102B04007047000010B503460C4A0D490D48006893
:102B140040B10C4800680344521A934206D8094A4B
:102B2400136010BD0748084C0460F2E7FDF79CFBF6
:102B34000C2303604FF0FF30F3E700BF00C0002018
:102B440000040000C0000020D802002000B587B0B7
:102B5400002302930393049305930093019319486C
:102B64004FF08042026041F61F42426083600122BE
:102B7400C26003618361FEF7CBFED0B94FF480538A
:102B8400029302A90F48FEF7FAFEA8B900230093A6
:102B9400019369460B48FEF771FF80B91C20FFF7CB
:102BA4008BFF002211461C20FFF752FF07B05DF88F
:102BB40004FBFEF74DFBE1E7FEF74AFBE6E7FEF711
:102BC40047FBEBE77401002000B587B000230293B4
:102BD400039304930593009301931948194A0260DF
:102BE40041F61F42426083606322C2600361802316
:102BF4008361FEF78DFED0B94FF48053029302A98E
:102C04000F48FEF7BCFEA8B9002300930193694660
:102C14000B48FEF733FF80B91D20FFF74DFF02225A
:102C240011461D20FFF714FF07B05DF804FBFEF703
:102C34000FFBE1E7FEF70CFBE6E7FEF709FBEBE72A
:102C44002C0100200004004082B00368B3F1804FDF
:102C540004D00E4A93420DD002B0704703F50433FA
:102C6400DA6942F00102DA61DB6903F001030093DF
:102C7400009BF1E7064BDA6942F00202DA61DB6994
:102C840003F002030193019BE6E700BF0004004048
:102C94000010024008B50A480A4B03604FF4E133C0
:102CA400436000238360C36003610C22426183613B
:102CB400C36100F0D7F900B908BDFEF7C9FAFBE714
:102CC4008C0200200038014008B50A480A4B036012
:102CD4004FF41653436000238360C36003610C22E6
:102CE40042618361C36100F0BDF900B908BDFEF71C
:102CF400AFFAFBE7BC0100200048004070B588B083
:102D040004460023049305930693079303684F4AEC
:102D1400934204D04E4A934248D008B070BD4D4B04
:102D24009A6942F480429A619A6902F4804200925C
:102D3400009A9A6942F004029A619B6903F00403C1
:102D44000193019B4FF4007304930223059303231F
:102D54000793414E04A93046FFF750FA4FF48063BD
:102D6400049300250595069504A93046FFF746FA15
:102D74003A483B4B03601023436085608023C36063
:102D8400056145618561C561FFF77AFB58B9334B2D
:102D9400A3635C62002211462520FFF759FE25201B
:102DA400FFF78AFEB9E7FEF753FAF0E7294BDA6931
:102DB40042F48022DA61DA6902F480220292029AF1
:102DC4009A6942F010029A619B6903F0100303931D
:102DD400039B4FF480630493022305930323079317
:102DE400204E04A93046FFF709FA4FF40063049318
:102DF40000250595069504A93046FFF7FFF91A4A00
:102E0400536823F0300343F0E06343F0100353604E
:102E14001648174B03601023436085608023C3600A
:102E2400056145618561C561FFF72AFB58B90F4B00
:102E3400A3635C62002211462720FFF709FE2720C6
:102E4400FFF73AFE69E7FEF703FAF0E700380140BE
:102E540000480040001002400008014048020020E1
:102E64004400024000100140000001400402002020
:102E74001C000240026802F10C0353E8003F23F0F7
:102E8400C0030C3242E800310029F3D1202380F83A
:102E940041307047026802F10C0353E8003F23F409
:102EA40090730C3242E800310029F3D1026802F138
:102EB400140353E8003F23F00103143242E80031C5
:102EC4000029F3D1036B012B05D0202380F8423075
:102ED400002303637047026802F10C0353E8003FC8
:102EE40023F010030C3242E800310029F3D1ECE75F
:102EF40090F84130DBB2212B01D002207047836867
:102F0400B3F5805F17D0036A5A1C02621A7803680B
:102F14005A60C38C9BB2013B9BB2C3844BB9026819
:102F2400D36823F08003D3600268D36843F040037E
:102F3400D360002070470369002BE4D1036A1B8827
:102F44000268C3F308035360036A02330362E0E7D1
:102F540010B504460268136923F44053C1680B4357
:102F6400136183680269134342691A430168CB6899
:102F740023F4B05323F00C031343CB60026853696A
:102F840023F4407381690B4353610268124B9A42E4
:102F94001FD0FFF713F900EB800303EB8303626890
:102FA4009200B3FBF2F20D48A0FB023149096423FD
:102FB40003FB11231B013233A0FB03235B0903F042
:102FC400F00202EB011203F00F03216813448B603B
:102FD40010BDFFF703F9DEE7003801401F85EB5110
:102FE4002DE9F84305460F4616469946DDF820803C
:102FF4002C68246837EA04030CBF01240024B4427B
:103004002DD1B8F1FF3FF3D0B8F1000F05D0FEF792
:10301400B7FDA0EB09004045EAD92A6802F10C0388
:1030240053E8003F23F4D0730C3242E80031002906
:10303400F3D12A6802F1140353E8003F23F001039B
:10304400143242E800310029F3D1202385F84130BD
:1030540085F84230002385F84030032000E000204A
:10306400BDE8F88360B310B5044690F8413013B35B
:10307400242384F841302268D36823F40053D360B6
:103084002046FFF765FF2268136923F49043136118
:103094002268536923F02A0353612268D36843F4F6
:1030A4000053D36000206064202384F8413084F806
:1030B4004230606310BD80F84030FFF71FFED7E751
:1030C400012070472DE9F04182B01E4690F841304E
:1030D400DBB2202B4BD104460D46904600294AD042
:1030E4000AB9012044E000234364212380F84130DD
:1030F400FEF746FD0746A4F82480A4F82680A368BA
:10310400B3F5805F02D04FF000080FE02369FBB1F4
:103114004FF000080AE038F8023B2268C3F30803C2
:103124005360E28C92B2013A92B2E284E38C9BB295
:103134008BB100963B46002280212046FFF750FFCA
:10314400D8B9002DE7D015F8012B23685A60E8E7B9
:10315400A8460025EAE700963B4600224021204687
:10316400FFF73EFF58B9202384F8413000E00220E5
:1031740002B0BDE8F0810120FAE70320F8E703205C
:10318400F6E7000038B590F84130DBB2202B30D19F
:10319400044600292FD00AB9012038BD0162828477
:1031A400C28400234364212084F84100A06B134DA2
:1031B4008562A06B124DC562A06B124D0563A06BB6
:1031C400436320681346021DA06BFFF7A5F923682B
:1031D4006FF040021A60226802F1140353E8003FC2
:1031E40043F08003143242E800310029F3D1002077
:1031F400D3E70220D1E70120CFE700BF0D3200085A
:10320400753200088332000808B50346406A1B681B
:103214001B6813F0200F1AD10023C384026802F143
:10322400140353E8003F23F08003143242E80031D2
:103234000029F3D1026802F10C0353E8003F43F084
:1032440040030C3242E800310029F3D108BDFDF7F8
:10325400EFFFFBE708B50168CA6822F04002CA60C4
:10326400202280F84120FDF7E3FF002008BD7047CD
:1032740008B5406AFFF7FBFF08BD7047704710B5FB
:10328400446A23685A6994F84130DBB2212B10D088
:1032940023685A6902F0400294F84230DBB2222BD0
:1032A40011D0636C43F0100363642046FFF7E6FF1C
:1032B40010BD02F08002002AEAD00023E3842046F5
:1032C400FFF7D8FDE4E7002AEBD00023E38520468E
:1032D400FFF7E0FDE5E708B5406A0023C385C38432
:1032E400FFF7CCFF08BD704790F84230DBB2222BC9
:1032F40069D18368B3F5805F4FD0826AB3F5805F8C
:1033040004D0002B56D10369002B53D103685B68AA
:103314001370836A01338362C38D9BB2013B9BB2FA
:10332400C385002B51D100B583B00268D36823F064
:103334002003D3600268D36823F48073D3600268E7
:10334400536923F001035361202380F842300023A2
:103354004363036B012B33D100230363026802F13F
:103364000C0353E8003F23F010030C3242E8003111
:103374000029F3D103681A6812F0100F06D0002256
:1033840001921A6801925B680193019B818DFFF79A
:10339400AAFF002003B05DF804FB0269002AACD147
:1033A400826A03685B68C3F308031380836A023389
:1033B4008362B1E703685B6803F07F031370A8E7D7
:1033C400FFF75BFFE5E7022070470020704700002D
:1033D40030B583B0044602681368D068516913F0AD
:1033E4000F0505D113F0200F02D010F0200F19D1D2
:1033F4002DB111F0010119D110F4907F16D1216B78
:1034040001297DD013F0800F03D010F0800F40F01D
:10341400188113F0400F03D010F0400F40F01581D5
:1034240003B030BD2046FFF75FFFF9E713F0010F4B
:1034340006D010F4807F03D0626C42F00102626413
:1034440013F0040F04D019B1626C42F002026264FA
:1034540013F0020F04D019B1626C42F004026264EA
:1034640013F0080F07D010F0200F00D119B1626CCF
:1034740042F008026264626C002AD1D013F0200F7B
:1034840002D010F0200F29D123685B6903F04003B8
:10349400626C12F0080F00D163B32046FFF7FAFC08
:1034A40023685B6913F0400F20D0226802F11403F3
:1034B40053E8003F23F04003143242E8003100296E
:1034C400F3D1E36B73B1634A5A63E06BFFF782F89D
:1034D4000028A5D0E06B436B9847A1E72046FFF78F
:1034E40003FFD1E72046FFF7C9FE99E72046FFF71F
:1034F400C5FE95E72046FFF7C1FE002363648FE70E
:1035040013F0100F3FF47EAF10F0100F3FF47AAFBA
:10351400002301931368019353680193019B53693A
:1035240013F0400F51D0E26B13685B689BB2002B21
:103534003FF476AFA18D99427FF672AFE38593692C
:10354400202B37D0226802F10C0353E8003F23F408
:1035540080730C3242E800310029F3D1226802F171
:10356400140353E8003F23F00103143242E800310E
:103574000029F3D1226802F1140353E8003F23F039
:103584004003143242E800310029F3D1202384F8A7
:10359400423000232363226802F10C0353E8003F06
:1035A40023F010030C3242E800310029F3D1E06B20
:1035B400FEF7EDFF02236363A18DE38D9BB2C91A6D
:1035C40089B22046FFF78FFE2AE7A18DE38D9BB2D7
:1035D400C91A89B2E38D9BB2002B3FF421AF0029B5
:1035E4003FF41EAF226802F10C0353E8003F23F4BA
:1035F40090730C3242E800300028F3D1226802F1C3
:10360400140353E8003F23F00103143242E800306E
:103614000028F3D1202384F8423000232363226856
:1036240002F10C0353E8003F23F010030C3242E88C
:1036340000300028F3D1022363632046FFF753FED2
:10364400EEE62046FFF754FCEAE62046FFF702FECA
:10365400E6E600BFDB32000800B583B00E4B5A69C2
:1036640042F001025A615B6903F001030193019B7B
:10367400002211460C20FFF7EBF90C20FFF71CFA8F
:10368400002211460E20FFF7E3F90E20FFF714FA8B
:1036940003B05DF804FB00BF00100240FFF730FAEE
:1036A4000B480C490C4A002302E0D458C45004339C
:1036B400C4188C42F9D3094A094C002301E0136071
:1036C4000432A242FBD3FCF7D5FDFDF747FE704759
:1036D4000000002074000020D4370008740000208B
:1036E400D8020020FEE70000F8B500BFF8BC08BC13
:1036F4009E467047F8B500BFF8BC08BC9E467047AC
:10370400244750524D432C253032642530326425F1
:103714003032642E30302C412C25732C25732C3000
:103724002E30302C302E30302C253032642530327F
:1037340064253032642C2C2C412A00003131303085
:10374400392E323430302C45000000003232333709
:103754002E383834302C4E00253032580D0A0000F3
:1037640002030405060708090A0B0C0D0E0F1010BE
:103774000102000000000000000000000102030438
:10378400060708090000000001020304232D302B62
:1037940020000000686C4C006566674546470000E1
:1037A4003031323334353637383941424344454673
:1037B4000000000030313233343536373839616235
:0837C40063646566000000006B
:0437CC004D020008A2
:0437D00025020008C6
:1037D40004000020000000000000000000000000C1
:1037E40000000000000000000000000000000000D5
:1037F40000000000000000000000000000000000C5
:1038040000000000000000000000000000000000B4
:1038140000000000000000000000000000000000A4
:103824000000000000000000000000000000000094
:10383400000000008D0100000100000010000000E5
:043844000024F40068
:04000005080036A118
:00000001FF
