:020000040800F2
:1000000000C0002009520008F52D0008F72D000857
:10001000F92D0008FB2D0008FD2D00080000000050
:10002000000000000000000000000000FF2D00089C
:10003000012E000800000000032E0008052E000815
:100040005152000851520008515200085152000804
:1000500051520008515200085152000851520008F4
:1000600051520008515200085152000851520008E4
:100070000D2E0008515200081D2E00085152000894
:1000800051520008515200085152000851520008C4
:1000900051520008515200085152000851520008B4
:1000A00051520008515200085152000851520008A4
:1000B0002D2700082D2E00088D2A00085152000817
:1000C0005152000851520008515200085152000884
:1000D000515200083D2E0008515200084D2E0008D4
:1000E0005152000851520008515200085152000864
:1000F0005152000851520008515200085152000854
:100100005152000851520008515200085152000843
:100110005152000851520008515200085152000833
:100120005152000851520008515200085152000823
:1001300000000000000000000000000000000000BF
:1001400000000000000000000000000000000000AF
:10015000000000000000000000000000000000009F
:10016000000000000000000000000000000000008F
:10017000000000000000000000000000000000007F
:10018000000000000000000000000000000000006F
:10019000000000000000000000000000000000005F
:1001A000000000000000000000000000000000004F
:1001B000000000000000000000000000000000003F
:1001C000000000000000000000000000000000002F
:1001D000000000000000000000000000000000001F
:0401E0005FF8E0F1F3
:1001E4000348044B834202D0034B03B118477047C2
:1001F400B0000020B00000200000000005480649BF
:100204000B1AD90F01EBA301491002D0034B03B120
:1002140018477047B0000020B00000200000000024
:1002240010B5064C237843B9FFF7DAFF044B13B13A
:100234000448AFF300800123237010BDB0000020F8
:10024400000000005452000808B5044B1BB10449D7
:100254000448AFF30080BDE80840CFE70000000089
:10026400B4000020545200080A22002100F0BABA57
:100274000A23002200F0AABA014B1868704700BF95
:100284000000002070B50D4E0D4D761BB61006D043
:100294000024013455F8043B9847A642F9D1094E8D
:1002A400094D04F0D5FF761BB61006D000240134A6
:1002B40055F8043B9847A642F9D170BD9055000803
:1002C400905500089455000890550008F0B486072E
:1002D40046D0541E002A3CD0CAB2034602E014F1B0
:1002E400FF3436D303F8012B9D07F8D1032C29D909
:1002F400CDB245EA05250F2C45EA054533D9A4F1CD
:100304001006360903F1200707EB061703F1100264
:1003140042E9045542E902551032BA42F8D1721C3E
:1003240014F00C0F03EB021204F00F0613D0331F6A
:1003340023F003030433134442F8045B9342FBD1D8
:1003440006F003042CB1C9B21C4403F8011B9C42FF
:10035400FBD1F0BC704734461346002CF3D1F8E7C8
:1003640014460346C2E71A462646E0E70CB470B5C5
:100374006FF000459CB020AC54F8042B094E029158
:100384000691234602A901940795CDE9045600F08D
:1003940021FC0022029B1A701CB0BDE8704002B020
:1003A400704700BF0802FFFF0EB4034630B56FF07C
:1003B40000449CB01FA951F8042B0A480A4D02932B
:1003C400069301910B46006802A90794CDE9044500
:1003D40000F000FC0022029B1A701CB0BDE8304003
:1003E40003B07047000000200802FFFF20F0030163
:1003F40010F00300C0F1000051F8043B00F1040CBC
:100404004FEACC0C6FF000021CBF22FA0CF213432B
:100414004FF0010C4CEA0C2C4CEA0C4CA3EB0C02F4
:1004240022EA030212EACC1204BF51F8043B04305E
:10043400F4D0C2F1000102EA0102B2FA82F2C2F17E
:100444001F0200EBD2007047830730B427D1046841
:10045400A4F1013323EA040313F0803F034608D1D7
:1004640053F8045FA5F1013424EA050414F0803F35
:10047400F6D01C781CB113F8014F002CFBD10139C4
:100484009D189D4202F1FF3207D011F8014F03F885
:10049400014B14B1002AF4D11A7030BC70470346E2
:1004A400E7E700BF002A44D040EA010313F0030346
:1004B400F0B425D1032A23D904680D68AC423AD19B
:1004C400043A33D0A4F1013525EA040414F0803F42
:1004D4002CD1071D0D1D0DE057F8043B0E68A3F148
:1004E4000134B34224EA030425D1043A1ED014F0A3
:1004F400803F1BD1032A2946384605F10405EBD871
:1005040003780D78561E9D420DD17EB173B1044619
:1005140002E082180AD04BB114F8013F11F8015FD0
:10052400321BAB42F5D0581BF0BC70470020F0BC26
:1005340070471046704703780D78561E9D42E5D0EB
:10054400F1E700BF70B440EA0104A30727D1032AEE
:1005540025D90B460646194653F8045BA5F1013428
:1005640024EA050414F0803F06D1043A032A46F82D
:10057400045B1946EFD882B133460C78551E03F854
:10058400014B74B132442E4405E011F8014FF51AC1
:1005940003F8014B2CB19A42F7D170BC7047064660
:1005A400E9E7002DF9D000221D4403F8012BAB42EA
:1005B400FBD170BC704700BF174B30B51C6883B0CB
:1005C400A26D054632B12846012303B0BDE8304090
:1005D40000F028B85020019100F056F90199024624
:1005E400A065A0B10023C0E90033C0E90233C0E92B
:1005F40004338361C0E90A33C0E90C33C0E90E3324
:10060400C0E91033C0E9123303774362DBE7034BDD
:100614005721034800F0F0F800000020C8540008F7
:10062400E0540008F0B418B307460D4617F8016B00
:1006340001E0A64217D015F8014B002CF9D1E6B120
:100644000C4617F8015B01E0002BF9D014F8013BCC
:100654009D42F9D155B1002307F8013C06461760C5
:100664003046F0BC704763B13846DDE72F46F5E706
:1006740010680028D8D10646F2E730461660F0BC70
:100684007047176006460370EAE700BF0123FFF7CF
:10069400C9BF00BF012B2DE9F84F41D0242B984648
:1006A4003ED80F46DFF820C100E02F463D4615F83E
:1006B400014B1CF8046016F00806F6D12D2C6FD0FF
:1006C4002B2C12BFA34695F800B0BD1C002B49D0BB
:1006D400102B5AD0002E14BF4FF000496FF0004980
:1006E4000027B9FBF8FEBC4608FB1E9A07E0E64566
:1006F40013D332D001270CFB084C15F801BBABF126
:100704003004092C05D9ABF14104192C11D8ABF1F3
:100714003704A34215DD002FE9DA4FF0FF37ECE789
:10072400FFF7AAFD16234FF0000C03606046BDE8F6
:10073400F88FABF16104192C03D8ABF15704A34231
:10074400E9DC002F26DB0EB1CCF1000C002AEDD041
:100754006FBB11606046BDE8F88FA245CADA4FF05E
:10076400FF37CAE7BBF1300F03D04FF00A08434606
:10077400B0E72B7803F0DF03582B1AD14FF01008A1
:1007840095F801B043460235A4E7BBF1300F14D00D
:1007940098469FE7222303603AB1CC46691ED8E706
:1007A40095F800B00126BD1C90E7CC46BEE7E146B3
:1007B400F3E74FF0080843468CE72C7804F0DF0495
:1007C400582CDBD0984685E77152000862E700BFD9
:1007D40010B4034C13460A460146206810BC59E77E
:1007E4000000002010B4034C13460A46014620685A
:1007F40010BC4FE70000002000B50A4C05462068F5
:1008040085B01C46C06852B1074BCDE90132009156
:100814002B462246054900F023F800F099FF044BCB
:100824001A46F2E700000020145500082455000879
:100834002055000808B513460022FFF7DDFF00BF6E
:100844000CB410B582B004AC54F8042B23460194C4
:1008540000F03EFB02B0BDE8104002B0704700BF9C
:100864000EB430B582B005AC54F8042B054D0146E6
:1008740023462868019400F02BFB02B0BDE8304009
:1008840003B0704700000020024B0146186800F0D6
:100894005FB800BF00000020024B0146186800F05A
:1008A40003B800BF0000002000293AD038B551F841
:1008B400043C0C1F002BB8BFE418054601F096FC5D
:1008C400224B1A682AB1A2420DD9216860188242CB
:1008D40021D0626028461C60BDE8384001F088BC25
:1008E400A34203D81A465368002BF9D11168501853
:1008F400A04217D022D821686018834203BFD3E9ED
:1009040000030918C4E90013636054602846BDE875
:10091400384001F06DBCD2E900020144C4E9001280
:10092400D8E7704720680144501883421160EDD124
:10093400D3E900030144C2E90013E7E70C23284686
:100944002B60BDE8384001F053BC00BFCC00002050
:10095400F8B5CD1C25F0030508350C2D38BF0C2542
:10096400002D064633DBA94231D82A4F01F03EFC64
:100974003A6852B113685B1B04D43FE023685B1BE5
:1009840029D522465468002CF8D1796800293BD037
:100994002946304600F0EAFD431C28D0C41C24F04C
:1009A4000304A04205D0211A304600F0DFFD0130D7
:1009B4001DD02560304601F01BFC04F10B0020F033
:1009C4000700231DC21A01D01B1AA350F8BD0C2224
:1009D40000203260F8BD0B2B05D8A242636811D009
:1009E4005360E7E7144623601C442560E2E70C23C8
:1009F4003046336001F0FCFB0020F8BD0B2BF1D82E
:100A0400144653683B60D5E7304600F0AFFD78608C
:100A1400BEE700BFCC0000202DE9F0478E68804679
:100A24009E420C461D461746086836D8B1F80CC0DD
:100A34001CF4906F0DD135462A46394601F070FBFF
:100A44000020A2682368961B2B44A6602360BDE89F
:100A5400F087D1E9041606EB460606EBD676A0EB42
:100A64000109013376104B44B342324684BF1E461B
:100A740032461CF4806F12D011464046FFF768FFDF
:100A8400824600B34A46216901F0D4FAA38923F4CB
:100A9400906343F08003A38106E01E46CCE7404602
:100AA40001F0A8FB824650B1A6EB09030AEB09004A
:100AB4006661C4F810A02060A3602E46BCE72169DB
:100AC4004046FFF7F1FE0C23C8F80030A3894FF02D
:100AD400FF3043F04003A381B9E700BF2DE9F04F95
:100AE400936883B09046002B6DD0176882460C46FD
:100AF400086808378D6843E0A38913F4906F2ED0FB
:100B0400D4E9041505EB4505A0EB010B05EBD57500
:100B14000BEB06006D100130A8422A4684BF05463F
:100B24002A465B0536D511465046FFF711FF0028CB
:100B34003AD05A462169019001F07CFAA289019BBE
:100B440022F4906242F08002A281A5EB0B0203EB37
:100B54000B006561B346354623612060A2605A46A6
:100B6400494601F0DDFAD8F80830A2682068551B20
:100B740058449E1BA5602060C8F808601EB308375F
:100B840057E90296AB46002EF9D0AE42B4D23546B0
:100B9400B346E4E7504601F02DFB03460028D4D1C8
:100BA40021695046FFF780FE0C2300224FF0FF30EE
:100BB400CAF80030A38943F04003A381C8E90122A5
:100BC40003B0BDE8F08F0020C8F8040003B0BDE80E
:100BD400F08F00BF2DE9F04F8B4689899FB00C063A
:100BE4009046029004D5DBF81020002A00F00D8115
:100BF400002020213022059398F8003001270B9023
:100C04008DF831108C4E8DF83220002B00F0868048
:100C1400252B00F0F880454603E0252B00F0888062
:100C240025466B786C1C002BF7D1B4EB080A75D001
:100C34004246534659460298FFF7EEFE01306DD006
:100C44000B9B6A7853440B93002A67D000234FF020
:100C5400FF3201340693CDE908338DF85B301C93E1
:100C6400079206E02C46069B801B07FA00F0184307
:100C740006902546052215F8011B304601F094F92B
:100C8400AA460028EED1069BD90644BF20228DF83F
:100C94005B201A0748BF2B22217848BF8DF85B20C0
:100CA4002A2949D1059A11680432002905927FDB6B
:100CB40009916178A51C2E2957D0604C0322204647
:100CC40001F072F9002869D04022069B001B02FA49
:100CD40000F00343069305F101082B780622194618
:100CE40057488DF8303001F05FF9002866D0554B35
:100CF400002B56D005AB00935A46534B06A90298D5
:100D0400AFF300808146B9F1FF3F07D00B9B4B4402
:100D14000B9398F80030002B7FF47AAFBBF80C30BB
:100D24005B064CBF4FF0FF300B981FB0BDE8F08F4F
:100D3400B4EB080A8AD07BE7A1F13002092A88BF04
:100D4400A246B8D8099B01E02C460135297803EB6B
:100D5400830302EB4303A1F13002092AAA46F3D923
:100D64002E2904F102050993A7D19AF801102A2922
:100D74002ED1059B0AF102001A680433002A079257
:100D840005939AF802100AF1030537DB2B4C8246CF
:100D94000322204601F008F9002895D1A8465546BB
:100DA4009BE7059B073323F0070308330593ADE75F
:100DB400494243F00203099106937AE705AB009395
:100DC4005A46214B06A9029800F086FA81469AE712
:100DD4000023A1F13002092A079301D923E05546E3
:100DE400697803EB830302EB4303A1F13002092A80
:100DF40005F1010AF3D9023507935EE74FF0FF339B
:100E04008246079359E7444620E740210393FFF7BE
:100E14009FFD039BCBF80000CBF8100030B14022BB
:100E2400CBF81420E4E6AA46013546E70C23029ADF
:100E34004FF0FF30136078E7545500085C55000804
:100E440060550008000000001D0A00089368013B7B
:100E5400002B93600FDA10B49469A34208DB0A29CB
:100E640006D01368581C10601970084610BC7047EF
:100E740010BC00F08DBB1368581C10601970084634
:100E8400704700BF9BB1F8B513440F4606465D1E7C
:100E9400541E01E0AC4208D03A4614F8011F304613
:100EA400FFF7D4FF431CF5D1F8BD0020F8BD0020A6
:100EB400704700BF936810B5144613B953601846C1
:100EC40010BD00F02DFE0023C4E9013310BD00BFA6
:100ED4002DE9F04F9FB08B4690461C46039018B105
:100EE4008369002B00F0B980A34B9B4500F0BB80C5
:100EF400A24B9B4500F0C980A14B9B4504BF039BBB
:100F0400D3F80CB0BBF80C30180740F1B480DBF810
:100F14001030002B00F0AF803023002120228DF808
:100F2400323098F8003005940B918DF83120954EAD
:100F34000127002B00F08980252B00F017814546FE
:100F440003E0252B00F0A58025466B786C1C002B54
:100F5400F7D1B4EB080A78D0424653465946039871
:100F6400FFF790FF013070D00B9B6A7853440B93CA
:100F7400002A6AD000234FF0FF3201340693CDE9F2
:100F840008338DF85B301C93079206E02C46069BD1
:100F9400801B07FA00F0184306902546052215F831
:100FA400011B304601F000F8AA460028EED1069B4A
:100FB400D90644BF20228DF85B201A0748BF2B2294
:100FC400217848BF8DF85B202A2967D1059A1168DA
:100FD400043200290592C0F29E8009916178A51C13
:100FE4002E2974D0684C0322204600F0DDFF00282F
:100FF40000F087804022069B001B02FA00F00343A6
:10100400069305F101082B78062219465F488DF8EE
:10101400303000F0C9FF002800F083805C4B002BC7
:1010240072D005AB00935A465A4B06A90398AFF306
:1010340000808146B9F1FF3F07D00B9B4B440B93D3
:1010440098F80030002B7FF477AFBBF80C305B06C8
:1010540018D40B981FB0BDE8F08F00F041FD464B4B
:101064009B457FF445AF039BD3F804B0BBF80C3029
:1010740018073FF54CAF5946039800F0E9FA0028E9
:101084003FF44AAF4FF0FF30E4E7039BD3F808B0D6
:1010940038E7B4EB080A3FF46DAF5DE7A1F1300225
:1010A400092A88BFA2469BD8099B01E02C4601353A
:1010B400297803EB830302EB4303A1F13002092AED
:1010C400AA46F3D92E2904F1020509938AD19AF884
:1010D40001102A292FD1059B0AF102001A68043352
:1010E400002A079205939AF802100AF1030538DBE7
:1010F400254C82460322204600F056FF00287FF448
:1011040079AFA84655467EE7059B073323F00703CE
:101114000833059391E7494243F00203099106938A
:101124005CE705AB00935A461A4B06A9039800F0F6
:10113400D3F881467EE70023A1F13002092A079300
:1011440001D915E05546697803EB830302EB4303A9
:10115400A1F13002092A05F1010AF3D902350793F6
:1011640040E74FF0FF33824607933BE7444601E7ED
:10117400AA46013536E700BFB4530008945300086B
:1011840074530008545500085C5500086055000865
:1011940000000000890E000810B4044C13460A46EF
:1011A4000146206810BCFFF793BE00BF000000207A
:1011B4002DE9F0470C460969A56891468D42B8BFF0
:1011C4000D46156094F8431006461F46DDF820804E
:1011D40011B16A1CC9F80020236899065CD5D9F8B6
:1011E40000200232C9F80020236813F0060F1946C4
:1011F4001DD1E1688A1A002AD8BF194617DD0025D7
:1012040004F1190A05E0E368D9F800209B1AAB42FF
:101214000CDD0123524639463046C047013005F102
:101224000105F0D14FF0FF30BDE8F087216894F854
:101234004330003318BF01238A060AD53021E2184F
:1012440082F8431094F845105A1C224482F8431043
:10125400023304F1430239463046C0470130E1D03D
:101264002368A26803F00603042B21691DD08A4277
:1012740026DD4FF00009521A914400251A3401E08A
:101284004D451DDA0123224639463046C047013018
:1012940005F10105F4D1C5E713F0060F13D094F856
:1012A4004330003318BF0123D3E7D9F80000E368C3
:1012B4008A42A3EB000323EAE379DCDC002BDCDCC9
:1012C4000020BDE8F087E168D9F800208A1A002AD6
:1012D400D8BF194693DCAAE72DE9F0430C46097EF2
:1012E40085B06E2906461746984604F1430C0C98BF
:1012F4006DD039D9732900F0F48044D9752900F0F0
:101304000281782940F00F8178232268DFF854E2C3
:1013140084F845300168150651F8043B016040F13A
:10132400A180D10744BF42F020022260002B00F0CC
:1013340093801022002184F8431060680028A06084
:10134400C0F2C680216821F004012160002B40F026
:10135400A280002840F0BE806546082A00F0AB80D9
:10136400ACEB0503236141E0632900F0E3801AD864
:10137400002938D0582940F0D68084F845102268D6
:10138400DFF8E4E1C6E76F2900F0BD80702940F082
:10139400CA8078232268DFF8CCE142F02002226080
:1013A40084F84530B6E7642902D0692940F0BB804F
:1013B40022680368110603F1040557D5196805600E
:1013C4000B46002959DB0A22DFF89CE1B5E70368E4
:1013D40022681D1D6169056015061B6802D450064C
:1013E40000F1BB801960002365462361CDF80080BD
:1013F4003B4603AA21463046FFF7DAFE013020D0EF
:101404002A46236939463046C047013019D022683C
:1014140003989207E36819D51A1A002A16DD0025E5
:1014240004F1190904E0E36803981A1AAA420DDDCD
:1014340001234A4639463046C047013005F10105CB
:10144400F1D14FF0FF3005B0BDE8F0839842B8BF4A
:10145400184605B0BDE8F0832168102221F0200170
:10146400216067E7500648BF9BB25AE75106A5D5ED
:10147400B3F9003005601946A3E72D2061685B428B
:10148400002984F84300A16002DB22F004022260F8
:101494000A22DFF8D4E0654600E00B46B3FBF2F124
:1014A40002FB11301EF80000934205F8010DF4D23E
:1014B400082A7FF455AF2368DB077FF551AF6268D4
:1014C40023699A423FF74CAF3023013D2B7047E725
:1014D400002BE0D19EF8003004F1420584F842303C
:1014E4003BE703686268191D01601D6800212846F6
:1014F40000F05AFD002832D0401B606020610023B8
:1015040084F8433072E72268036812F0800F03F115
:1015140004051AD01B6805606F290CBF08220A2233
:10152400DFF844E006E7012384F84210236104F164
:101534004205E4E70122036804F14205191D1B6812
:10154400016084F842302261D9E712F0400F0DBFE8
:101554001B6805601B880560DEE7198043E7606847
:10156400CCE700BF7C5500086855000838B5002357
:10157400064C05460846236002F074FF431C00D065
:1015840038BD2368002BFBD02B6038BD70070020CA
:10159400F8B50D461446064608B1836943B3254B96
:1015A4009C422AD0244B9C4229D0244B9C4208BF05
:1015B400F468A269A389A2601A0722D5236903B338
:1015C40022686169D31AEDB299422F4629DD0133AD
:1015D400A168501C0139A1602060157062699A42AB
:1015E40016D0A389DB0701D50A2D11D03846F8BDE2
:1015F40000F076FA0F4B9C42D4D17468D9E7B468F2
:10160400D7E72146304600F023F838B92369D7E7F5
:101614002146304600F03AF90028E7D04FF0FF3772
:10162400E4E72146304600F031F90028F6D10123E1
:101634002268CDE7B453000894530008745300089B
:10164400024B0A4601461868FFF7A2BF00000020BB
:101654003B4B70B51D6806460C460DB1AB69DBB15A
:10166400384B9C421ED0384B9C424AD0374B9C424C
:1016740008BFEC68B4F90C2093B2190718D5206997
:1016840008B313F001022CD000226369A2605B420C
:10169400A36160B3002070BD284600F021FA294BF5
:1016A4009C42E0D16C68B4F90C2093B21907E6D4DB
:1016B400DD063CD5580726D4206942F00803A381EF
:1016C4009BB20028DDD103F42072B2F5007FD8D09C
:1016D4003046214600F01EFCA389206913F0010264
:1016E400D2D1990758BF6269A2600028D2D1B4F957
:1016F4000C301A06CFD543F04003A3814FF0FF30DE
:1017040070BDAC68B6E7616B51B104F14403994212
:1017140004D03046FFF7C8F8B4F90C200023636303
:101724000023206922F02402C4E90003C5E7092349
:1017340042F0400233604FF0FF30A28170BD00BF21
:1017440000000020B45300089453000874530008A8
:1017540008B5062000F0FAFD012002F0B1FE00BF3A
:101764002DE9F0418F890C463A07804641D44B68F5
:10177400002B59DDE66A002E53D0002317F4805263
:10178400D8F80050216AC8F8003051D101234046EE
:10179400B047431C5FD0A789E66A216A7F0705D555
:1017A4006268636B801A0BB1236CC01A0246002373
:1017B4004046B047461C45D1D8F80030B4F90C2057
:1017C400002B55D01D2B01D0162B5AD10022236992
:1017D400C4E90032616BC8F8005011B304F144034A
:1017E400994202D04046FFF75FF800206063BDE8ED
:1017F400F0810E69AEB10D680E60B90714BF002305
:101804006369AD1BA3600AE02B463246A76A216ACE
:101814004046B8470028A5EB000506440ADD002D24
:10182400F2DC0020BDE8F0810B6C002BA2DCF8E7B1
:10183400606DB3E7A3894FF0FF3043F04003A38109
:10184400BDE8F081002322696360A3892260DA0481
:10185400C0D56065BEE7D8F80030002B9BD01D2BA7
:101864000CD0162B0AD0A38943F04003A381D9E7F7
:101874002169C4E90013D304ACD5EAE7C8F80050E1
:10188400CFE742F04002A281CCE700BF0B6923B34B
:1018940010B5044682B008B18369BBB1104B9942BC
:1018A40012D0104B994216D00F4B994208BFE168F1
:1018B400B1F90C302BB1204602B0BDE81040FFF75F
:1018C4004FBF002002B010BD6168F1E7019100F044
:1018D40007F90199E2E7A168EAE70020704700BF31
:1018E400B4530008945300087453000820B1054B06
:1018F40001461868FFF7CABF034B0449186800F093
:10190400B3BA00BF000000206C5200089118000810
:1019140000207047014900F0A7BA00BF91180008E1
:101924000020704770B568254A1E05FB02F50E4677
:1019340005F17401FFF70CF8044640B100210C30A6
:10194400666005F168022160A060FEF7BFFC2046D6
:1019540070BD00BF1E4B70B51D680646AB6943B32E
:101964004835D5E90134013B05D51EE0013B5A1C3D
:1019740004F1680419D0B4F90C20002AF6D100252A
:10198400144B6566C4E90055A560C4E90455A56116
:101994002946E360082204F15C00FEF797FCC4E9E1
:1019A4000D55C4E91255204670BD2C682CB125464E
:1019B400D7E7284600F010F8D2E704213046FFF7B5
:1019C400B1FF044628600028F1D10C233360EAE714
:1019D4006C5200080100FFFF2DE9F84F0023334A41
:1019E400C0E9123312680365904208BF01233049ED
:1019F40008BF836181620546FFF7ACFF6860284633
:101A0400FFF7A8FFA86028460024FFF7A3FF0423DC
:101A14006E68E8602146F3607466C6E90044B46009
:101A2400C6E90444B46106F15C000822FEF74EFCEA
:101A3400DFF888B0AF68DFF888A0DFF88890DFF8B7
:101A440088801C4BC6E9086BC6E90AA9C6F8308031
:101A54002146FB6008227C66C7E90044BC60C7E9F4
:101A64000444BC6107F15C00FEF730FCEE68124BE5
:101A7400C7E9087BC7E90AA9C7F830802146F360A3
:101A84007466C6E90044B460C6E90444B46106F16E
:101A94005C000822FEF71AFC0123C6E9086BC6E9BC
:101AA4000AA9C6F83080AB61BDE8F88F6C52000813
:101AB400191900080900010012000200C1230008DE
:101AC400E92300082924000849240008024B03499B
:101AD400186800F0C9B900BF6C52000891180008DA
:101AE400836903B978E77047704700BF704700BF48
:101AF400704700BF704700BF024B0349186800F0ED
:101B04008FB900BF0000002015190008024B0349DB
:101B1400186800F085B900BF0000002025190008EE
:101B24009368002B00F0FC802DE9F04FB1F90C30E4
:101B34000C469BB2190783B0824690462BD5226986
:101B44004AB313F00202D8F8006033D000273D46B0
:101B5400D4F828B0216ADFF8C492C5B14D452B46AC
:101B64003A4628BF4B465046D847002840F3CE801B
:101B7400D8F8083007441B1A2D1AC8F80830002B6F
:101B840000F0B380D4F828B0216A002DE6D1D6E95C
:101B940000750836E1E721465046FFF759FD002855
:101BA40040F03781B4F90C30D8F800609BB213F0E0
:101BB4000202CBD113F0010940F0B4804D46A7686E
:101BC4002068002D55D09A0540F1C080AF42BB4635
:101BD40000F2EE8013F4906F2FD0D4E9041707EBD2
:101BE4004707A0EB010B07EBD777681C7F1058441D
:101BF400B8423A4684BF07463A465B0540F1F08056
:101C040011465046FEF7A4FE002800F0FC805A4618
:101C14002169019000F00EFAA289019B22F49062DE
:101C240042F08002A281A7EB0B0203EB0B00676179
:101C3400AB462F4623612060A2605A46494600F015
:101C44006FFA2368A2685B44AB460025D71BA760E4
:101C54002360D8F80870D944A7EB0B07C8F80870BC
:101C6400002F42D0B4F90C30A7689BB22068002D35
:101C7400A9D1D6E900950836A3E70BF1080353F878
:101C8400047C9B4653F8086C0833002FF7D03A467F
:101C94000A21304600F088F9002854D00130A0EB26
:101CA40006094B4620682169BB4228BF3B4688424F
:101CB400626903D9A5681544AB421ADC9A4200F361
:101CC40081801346A56A3246216A5046A847051EFC
:101CD4001CDDB9EB05096ED00120D8F808302E447C
:101CE4005B1B7F1BC8F8083013BB002003B0BDE8A2
:101CF400F08F31462A4600F013FA236821462B441C
:101D040023605046FFF7C2FD0028E2D0B4F90C303E
:101D14004FF0FF3043F04003A38103B0BDE8F08FE0
:101D24000020704733469146104617464E469B4660
:101D3400002FA2D00028B4D13A460A21304600F040
:101D440033F90028AAD17B1C9946ABE72369834267
:101D540017D36269AA4214D82F4BA76A9D4294BF35
:101D64002B466FF0004393FBF2F3216A02FB03F36B
:101D740050464A46B847B0F1000BC7DDA5EB0B054A
:101D840067E7AF4228BF2F4649463A4600F0C8F9F4
:101D9400A3682268DB1B3A44BB46A3602260002B85
:101DA400ECD121465046FFF771FD0028E6D0ADE79F
:101DB4002F46AB4641E721465046FFF767FD002812
:101DC4008BD0A3E71A4631461D46019300F0A8F9CB
:101DD400A1682268019BC91A1344A160236078E7B3
:101DE400504600F007FA034600287FF41CAF21692F
:101DF4005046FEF759FD0C22B4F90C30CAF8002005
:101E040023F0800384E70C22B4F90C30CAF80020D4
:101E14007EE74FF0FF3069E7FEFFFF7F00FCFF7FA6
:101E24002DE9F04110F148071AD088460026D7E979
:101E34000154013D0ED4A389013D012B06D9B4F907
:101E44000E30013302D02046C04706436B1C04F118
:101E54006804F0D13F68002FE9D13046BDE8F08135
:101E64003E463046BDE8F0812DE9F84310F14806BE
:101E74001ED0884607464FF00009D6E90154013DBB
:101E840010D4A389013D012B08D9B4F90E300133D4
:101E940004D021463846C04749EA00096B1C04F1C6
:101EA4006804EED13668002EE7D14846BDE8F883D1
:101EB400B1464846BDE8F88370B50C46B1F90E103A
:101EC40096B0002916461D4613DB6A4600F0E6FA72
:101ED40000280EDB019A4FF4806302F47042A2F5ED
:101EE4000052B2FA82F2002052092A60336016B01E
:101EF40070BD0022A3892A601B0604D5402300205C
:101F0400336016B070BD4FF480630020336016B0A8
:101F140070BD00BF8A890B46920706D5012103F1E3
:101F2400470259611A601A61704770B582B001ABFB
:101F34006A460C460646FFF7BFFF00990546304641
:101F4400FEF706FDB4F90C3070B1164A0099B2627E
:101F5400019A43F08003A3812060C4E904018AB993
:101F64002B43A38102B070BD9A05FBD4012123F059
:101F7400030304F1470243F00203A3816161226079
:101F84002261EFE73046B4F90E1000F09BFA10B965
:101F9400B4F90C30E4E7A38923F0030343F001030D
:101FA4001BB2DDE719190008830770B4CDB23DD028
:101FB400541E0AB30378AB421FD0431C05E014F14E
:101FC400FF3419D30278AA4217D013F0030F18462E
:101FD40003F10103F3D1032C11D84CB30378AB42C2
:101FE4000BD00444431C02E00278AA4205D09C4270
:101FF400184603F10103F7D1002070BC7047024674
:102004000E02B6B22E4346EA0646136810467340E3
:10201400A3F1013121EA030313F0803F02F104022A
:10202400DCD1043C032C1046EFD8D6E71446D2E7A3
:102034002046E2E7844641EA000313F0030349D152
:10204400403A23D30B6803604B6843608B6883601A
:10205400CB68C3600B6903614B6943618B6983611E
:10206400CB69C3610B6A03624B6A43628B6A836206
:10207400CB6AC3620B6B03634B6B43638B6B8363EE
:10208400CB6BC36340304031403ADBD230320BD3A8
:102094000B6803604B6843608B688360CB68C360E4
:1020A40010301031103AF3D20C3205D351F8043BFE
:1020B40040F8043B043AF9D2043208D0D2071CBFDA
:1020C40011F8013B00F8013B01D30B880380604603
:1020D400704700BF082A13D38B07B1D010F0030355
:1020E400AED0C3F10403D21ADB071CBF11F8013BC5
:1020F40000F8013BA4D331F8023B20F8023B9FE7F0
:10210400043AD9D3013A11F8013B00F8013BF9D262
:102114000B7803704B7843708B78837060467047FC
:102124008842F0B40DD98B1883420AD9841832B18D
:10213400224613F8014D994202F8014DF9D1F0BC41
:1021440070470F2A0ED80346541E002AF7D00134D4
:102154000C44013B11F8012BA14203F8012FF9D1E2
:10216400F0BC704740EA01039B073AD1A2F1100783
:102174003F0901F1200606EB071601F1100300F1F7
:10218400100453F8105C103344F8105C53F81C5CD2
:10219400103444F81C5C53F8185C44F8185C53F889
:1021A400145CB34244F8145CEBD17B1C1B0112F0A9
:1021B4000C0F194402F00F05034415D00E46043DDC
:1021C400AD0803EB850C1C1F56F8047B44F8047F10
:1021D4006445F9D10135AD002B44294402F00302D2
:1021E400B2E7541E0346B2E72A46ADE7704700BF84
:1021F400704700BF09B3F8B51446CAB106460D4688
:1022040000F088F9A04202D32F463846F8BD214693
:102214003046FEF79DFB07460028F6D022462946A5
:10222400FFF708FF30462946FEF73EFB3846F8BD67
:102234002746FEF739FB3846F8BD1146FEF788BB42
:1022440010B580210446FEF783FB606440B1002290
:10225400031F7C3043F8042F8342FBD1002010BDC0
:102264004FF0FF3010BD00BF436C0BB1002070472E
:10227400E6E700BF1F2970B5054608D8436C16462B
:102284000C464BB153F8240043F8246070BD162269
:102294004FF0FF302A6070BDFFF7D2FF08B96B6CB6
:1022A400F0E74FF0FF3070BD1F2938B5054620D840
:1022B400426C0C466AB152F8213053B1012B16D04E
:1022C400591C10D00025204642F82450984728462F
:1022D40038BD284600F070F8224601462846BDE87D
:1022E400384000F055B8162301202B6038BD00207B
:1022F40038BD16234FF0FF302B6038BD1F2921D87D
:1023040038B5436C05460C4683B153F8242003EBDF
:1023140084034AB1511C10D0012A0CD00025204658
:102324001D609047284638BD012038BDFFF788FF5F
:1023340028B96B6CE9E7032038BD022038BD4FF0A3
:10234400FF3038BD4FF0FF30704700BF024B0146ED
:102354001868FFF7A9BF00BF00000020024B0A461F
:1023640001461868FFF786BF00000020034B186879
:10237400436C0BB10020704762E700BF00000020EF
:10238400024B01461868FFF7B9BF00BF00000020E8
:1023940070B50D460023074C0646114628462360B7
:1023A40002F086F8431C00D070BD2368002BFBD0DC
:1023B400336070BD7007002002F078B810B50C4689
:1023C400B1F90E1000F0AEF8002803DB636D03448E
:1023D400636510BDA38923F48053A38110BD00BF9E
:1023E400002070472DE9F041B1F90C409846E3050F
:1023F4000D461746B1F90E10064609D424F480544C
:10240400AC8143463A463046BDE8F04100F01EB880
:102414000223002200F068F8B5F90C40B5F90E105B
:10242400ECE700BF10B50C46B1F90E1000F05CF8F3
:10243400A389421C0EBF23F4805343F48053606588
:10244400A38110BDB1F90E1000F016B8F8B50E4610
:102454000025084C114607461A463046256002F00E
:1024640045F8431C00D0F8BD2368002BFBD03B602B
:10247400F8BD00BF7007002038B50023064C0546A0
:102484000846236002F040F8431C00D038BD23689E
:10249400002BFBD02B6038BD7007002070B50D46B3
:1024A4000023074C064611462846236002F02FF805
:1024B400431C00D070BD2368002BFBD0336070BD7B
:1024C4007007002038B50023064C054608462360F3
:1024D40002F022F8431C00D038BD2368002BFBD047
:1024E4002B6038BD70070020F8B50E460025084C57
:1024F400114607461A463046256002F00FF8431C81
:1025040000D0F8BD2368002BFBD03B60F8BD00BFB2
:102514007007002051F8043C181F002BBCBF0B5857
:10252400C0187047F8B50E460025084C11460746FA
:102534001A463046256001F0C9FF431C00D0F8BD9F
:102544002368002BFBD03B60F8BD00BF7007002060
:1025540008B5002220210F4801F01CFC00220421B0
:102564000D4801F017FC0023B3F5FA7F01DA0133BB
:10257400FAE701222021074801F00CFC0122042182
:10258400054801F007FC0023B3F5FA7FE1DA0133D3
:10259400FAE700BF00100140000C0140084B1B6823
:1025A40013F0010F0BD1074AD36843F08073D36053
:1025B400034B00225A601A6842F001021A60704705
:1025C400001000E0F0ED00E0074B5A68074B1B6871
:1025D4000749A1FB03139B0C00FB03F0024B5B6850
:1025E4009B1A8342FAD37047001000E0AC0000202D
:1025F40083DE1B4302460378242B07D00020137884
:1026040033B12A2B04D001325840F8E70132F5E700
:10261400704700002DE9F04186B0324B1C68324B04
:102624001B68C3EB03139B004FF4616000FB04338E
:102634002E4A14681C4400F067FF2D4B1B68184495
:102644002C4BA3FB003004EB90102B4BA3FB00237B
:10265400DB0A2A4DA5FB03252D0905EB4505A3EB54
:10266400C505274CA4FB00235B09A4FB03246409D0
:10267400C4EB0414A3EB8404C3EB0313A0EB8306A1
:10268400204F4FF06408424600213846FDF71EFEF5
:102694001D4B1B681D4AA2FB0312520908FB123290
:1026A40005921B4B1B6804931A4B1B6803931A4B2C
:1026B40002931A4B0193F6B20096E3B2EAB21849B8
:1026C4003846FDF771FE3846FFF794FF0446384656
:1026D400FDF78CFE224613493844FDF765FE06B02B
:1026E400BDE8F08168000020D4000020D80000205C
:1026F400EC040020D34D6210C5B3A291ABAAAAAAE0
:102704008988888814050020700000201F85EB51FB
:102714006C00002064000020880000207400002069
:10272400D45300081054000808B5124B1B681A69EA
:1027340012F0400F08D06FF040021A610E490A7877
:10274400B2FA82F252090A701A6912F0010F05D026
:102754006FF001021A61084B1B7803B108BD002217
:102764002021064801F016FB01220421044801F04F
:1027740011FBF3E7100600209C000020001001402C
:10278400000C014008B50268134B9A4200D008BD02
:10279400124B1B781BB1124A136801331360114B9F
:1027A4001B782BB1104A136801331360012B08DC2A
:1027B4000E4B1B78002BEAD00D4A136801331360CB
:1027C400E5E70022074B1A70074B1A6008210948F5
:1027D40001F0E0FAECE700BF000400400C05002023
:1027E400080500200405002000050020F80400204E
:1027F400F4040020000C01400368054A934203D00E
:10280400A2F57042934202D1024B00221A70704723
:1028140000380140F80400200A2802D0002840F0C3
:10282400E68070B59AB0784B1A68784B00219954B9
:102834001B78232B0CD0242B39D04FF48062002139
:102844007248FDF743FD704B00221A601AB070BD48
:102854000A2269466E48FDF7C5FF0246009B1B78B5
:1028640083B96C4B18606C4901A8FDF79DFD01A864
:10287400FDF7BCFD4FF47A7382B201A9674802F0F8
:10288400A9F9DAE701AC664D0FCD0FC40FCD0FC423
:102894000FCD0FC42B68238001A8FDF7A7FD4FF4CB
:1028A4007A7382B201A95D4802F094F9CEE7062258
:1028B4005C495648FDF7F6FD05460028BDD10346A0
:1028C400014600E00133514AD25C1AB12C2AF9D1F5
:1028D4000131F7E70A2975DD53494C48FDF76CFED1
:1028E40004462AE0FDF7C0FC504E86FB0023C017C7
:1028F400C0EB23304E4B18602046FDF7B5FC86FB39
:102904000036C317C3EB263342F2107202FB1303E3
:10291400484E86FB0312DB17C3EB6213464A13606F
:102924002046FDF7A1FC86FB0036C317C3EB6613F4
:10293400642202FB1303414A1360002C3AD03A4943
:102944000020FDF739FE044601356B1E052BF4D833
:1029540001A252F823F000BFE92800083F2900082B
:10296400752900088129000897290008A32900086F
:10297400142201463248FDF7E5FDDEE7304E3046CD
:10298400FDF734FDC0F1130221463046FDF75CFD2E
:10299400D3E7142201462B48FDF7D4FDCDE7294E99
:1029A4003046FDF723FDC0F1130221463046FDF702
:1029B4004BFDC2E7244B1C6800F0A6FD241A234BF0
:1029C4001C603AE701AC224D0FCD0FC40FCD0FC4EC
:1029D40095E8070084E8070001A8FDF707FD4FF418
:1029E4007A7382B201A90D4802F0F4F82EE7064B7F
:1029F4001B6840F2FE32934205D8591C024A11600A
:102A0400024AD05470477047FC040020E4000020C0
:102A1400E5000020A000002018540008280700202A
:102A24003C5400083054000838540008AD8BDB686F
:102A3400680000201F85EB51D4000020D80000203E
:102A44007400002088000020DC000020EC0400203A
:102A54007054000838B50268074B9A4200D038BD5C
:102A64000446064D2878FFF7D7FE01222946204662
:102A740002F093FBF3E700BF003801407805002023
:102A840008B5FFF765FD000008B51E4B1B681A6901
:102A940012F0010F35D06FF001021A611A4A13685F
:102AA40001331360B3F5FA7F05D3134600221A608D
:102AB400164B01221A70164A13680133136041F24F
:102AC400873293421DD9124B00221A60114B012206
:102AD4001A70114B1B782BB9104B1868FFF774FD53
:102AE400002302E0FFF7CCFF01330D4A1268934242
:102AF400FAD3012208210B4801F04CF9064B0122BC
:102B04001A7008BD80050020E4040020060500209A
:102B1400E80400200505002004050020A000002092
:102B2400F0040020000C014000B591B0002309938B
:102B34000B930C9301930293039304930593012144
:102B440006914FF48032079208930A9102230D9361
:102B54000E924FF4E0130F9306A800F0F1FC80B935
:102B64000F23019302210291002303934FF4806207
:102B74000492059301A800F015FF20B911B05DF887
:102B840004FBFFF77DFFFFF77BFF000008B500F0B3
:102B94009DFCFFF7C9FFFFF701FD00F0C3F802F049
:102BA4000FFB01F0BDFC01F0E5FD01F005FE01F0B5
:102BB40009FD01F047FD494800F09EF908B1FFF70F
:102BC4005FFF012211461D2001F0F2FB1D2001F0E0
:102BD40023FC434800F090F908B1FFF751FF0022AD
:102BE40011461E2001F0E4FB1E2001F015FC00F04C
:102BF4008BFC3C4B18603C4800F07EF908B1FFF7B1
:102C04003FFF022211461C2001F0D2FB1C2001F0E0
:102C140003FC01223549364802F0BFFA90B1FFF7B0
:102C24002FFF0023334A1370334A13600122042117
:102C3400324801F0AFF810E0314B1B78F3B9314B57
:102C44001B7853BB304B1B78002BFBD0294B1B78D4
:102C54001BB1294B1B68042BE3DC2C4B1B78002B8A
:102C6400EAD12B4B1B68042BE6DD294B00221A60AA
:102C740001222021274801F08DF8DDE70022204BB6
:102C84001A7004211D4801F085F81A4B01221A70AC
:102C94001021204801F084F8D1E70022194B1A7062
:102CA40020211C4801F076F8184B01221A701A4BA7
:102CB4001868FFF7AFFC194C2046FDF797FB062375
:102CC40082B221460A4801F085FF2046FDF78EFBBB
:102CD40082B22146124801F0DDFFB3E7C8050020A7
:102CE40080050020DC00002010060020780500206C
:102CF400280700200C05002008050020000C0140D6
:102D040006050020050500209C000020F804002092
:102D1400F404002000100140E0000020140500200D
:102D2400580600202DE9F04188B00024049405944D
:102D3400069407942B4B9A6942F010029A619A699F
:102D440002F010020092009A9A6942F020029A61FD
:102D54009A6902F020020192019A9A6942F00402EF
:102D64009A619A6902F004020292029A9A6942F004
:102D740008029A619B6903F008030393039B1A4EAC
:102D8400224642F21001304601F004F801222021CB
:102D9400304600F0FFFF154D01220421284600F0C3
:102DA400F9FF22460821284600F0F4FF42F23003DE
:102DB40004934FF00108CDF8148006940227079776
:102DC40004A9304600F0CAFE0C230493CDF8148005
:102DD4000694079704A9284600F0C0FE08B0BDE891
:102DE400F08100BF0010024000100140000C0140BF
:102DF400FEE7FEE7FEE7FEE7FEE770477047704731
:102E040008B500F075FB08BD08B5024801F048F9A3
:102E140008BD00BFA006002008B5024801F040F933
:102E240008BD00BFE406002008B5024800F0A4F87D
:102E340008BD00BFC805002008B5024802F04EF8DE
:102E440008BD00BF2807002008B5024802F046F874
:102E540008BD00BF5806002082B00E4B9A6942F0AC
:102E640001029A619A6902F001020092009ADA69F9
:102E740042F08052DA61DB6903F080530193019BD5
:102E8400054A536823F0E06343F00073536002B0D3
:102E9400704700BF001002400000014030B4036AD4
:102EA400056A25F001050562846924F0F00444EA0A
:102EB400021423F00A030B438461036230BC70479D
:102EC40030B4036A056A25F010050562846924F4A8
:102ED400704444EA023423F0A00343EA01138461FA
:102EE400036230BC7047836823F070030B4343F0E4
:102EF400070383607047000090F83D30DBB2012B7C
:102F04002FD1022380F83D300268D36843F00103D7
:102F1400D3600368154A934218D002F500629342C5
:102F240014D0B3F1804F11D0A2F5983293420DD052
:102F340002F58062934209D002F58062934205D083
:102F44001A6842F001021A60002070479A6802F081
:102F54000702062A07D01A6842F001021A6000200C
:102F64007047012070470020704700BF002C0140CB
:102F7400704770477047704710B5044603681A6974
:102F840012F0020F11D0DA6812F0020F0DD06FF0B8
:102F940002021A610123037703689B6913F0030F8C
:102FA40070D0FFF7E6FF0023237723681A6912F035
:102FB400040F12D0DA6812F0040F0ED06FF004027E
:102FC4001A610223237723689B6913F4407F5FD03F
:102FD4002046FFF7CEFF0023237723681A6912F0F7
:102FE400080F12D0DA6812F0080F0ED06FF0080242
:102FF4001A61042323772368DB6913F0030F4ED08F
:103004002046FFF7B6FF0023237723681A6912F0DE
:10301400100F12D0DA6812F0100F0ED06FF01002F9
:103024001A61082323772368DB6913F4407F3DD0BA
:103034002046FFF79EFF0023237723681A6912F0C6
:10304400010F03D0DA6812F0010F36D123681A6930
:1030540012F0800F03D0DA6812F0800F34D12368A5
:103064001A6912F0400F03D0DA6812F0400F32D11F
:1030740023681A6912F0200F03D0DA6812F0200FC7
:1030840030D110BDFFF774FF2046FFF773FF8AE7C6
:103094002046FFF76DFF2046FFF76CFF9BE72046B5
:1030A400FFF766FF2046FFF765FFACE72046FFF712
:1030B4005FFF2046FFF75EFFBDE76FF001021A6174
:1030C4002046FFF75FFBC1E76FF080021A612046DC
:1030D40000F0D5F9C3E76FF040021A612046FFF70C
:1030E4004AFFC5E76FF020021A61204600F0C6F9D6
:1030F400C7E700000368244A904212D002F5006238
:1031040090420ED0B0F1804F0BD0A2F5983290428D
:1031140007D002F58062904203D002F580629042AB
:1031240003D123F070034A681343174A904212D024
:1031340002F5006290420ED0B0F1804F0BD0A2F5A0
:103144009832904207D002F58062904203D002F593
:103154008062904203D123F44073CA68134323F07E
:1031640080034A69134303608B68C3620B688362FC
:10317400054B984203D003F50063984201D10B69D3
:103184000363012343617047002C014040B310B531
:10319400044690F83D30F3B1022384F83D302146D3
:1031A40051F8040BFFF7A6FF012384F8463084F896
:1031B4003E3084F83F3084F8403084F8413084F85D
:1031C400423084F8433084F8443084F8453084F83D
:1031D4003D30002010BD80F83C3001F073FADBE78D
:1031E4000120704710B4846824F47F4442EA032227
:1031F4000A432243826010BC704790F83C30012B94
:1032040078D010B50446012380F83C30022380F8BE
:103214003D300268936823F47F4323F0770393607F
:103224000B68602B4CD029D8402B54D00CD9502B90
:1032340022D1CA6849680068FFF730FE502120682F
:10324400FFF751FE002005E0202B0DD009D9302BCB
:103254000AD00120012384F83D30002384F83C3057
:1032640010BD0BB1102B05D119462068FFF73BFEAA
:103274000020EFE70120EDE70120EBE7B3F5805FE5
:1032840034D0B3F5005F0CD1CB684A688968006814
:10329400FFF7A8FF2268936843F4804393600020FB
:1032A400D8E7702B24D1CB684A6889680068FFF797
:1032B40099FF2268936843F0770393600020C9E77D
:1032C400CA6849680068FFF7FBFD60212068FFF7C2
:1032D4000AFE0020BEE7CA6849680068FFF7DEFD01
:1032E40040212068FFF7FFFD0020B3E70020B1E78D
:1032F4000120AFE70220704710B50468A26822F0ED
:1033040070024B68134323F007030A681343A36056
:103314004B68502B32D00BD9602B36D0702B43D155
:103324000B698A68C9680068FFF75CFF00200FE03A
:10333400402B0ED001D901200AE0202B2CD003D938
:10334400302B2FD1002003E043B3102B28D10020D1
:1033540010BD0B68052B29D003681C6A1A6A22F079
:1033640001021A620268936923F0F003096943EACF
:103374000113936103681C620020E9E70A69896804
:103384000068FFF78BFD0020E2E70A69896800689E
:10339400FFF796FD0020DBE70020D9E70020D7E700
:1033A4000120D5E70120D3E70120D1E70120CFE7B1
:1033B40090F83C30012B22D010B50446012380F84C
:1033C4003C30022380F83D30FFF796FF80B9226835
:1033D400D36823F04003D3602268D36823F4804386
:1033E400D360012384F83D30002384F83C3010BDC1
:1033F400012084F83D00002384F83C30F7E70220E4
:103404007047000090F83C30012B33D030B40123D6
:1034140080F83C30022380F83D3003685C689D6886
:1034240024F070040A6822435A600368124A9342E3
:1034340012D002F5006293420ED0B3F1804F0BD04C
:10344400A2F59832934207D002F58062934203D0EA
:1034540002F58062934204D125F080054A68154341
:103464009D60012380F83D30002380F83C301846ED
:1034740030BC704702207047002C014070477047F1
:1034840010B504460E4B18784FF47A73B3FBF0F37F
:103494000C4A1068B0FBF3F000F0CCFF68B90F2CB5
:1034A40001D901200AE0002221464FF0FF3000F04C
:1034B4007FFF054B1C60002000E0012010BD00BF11
:1034C400A4000020AC000020A800002008B5074A92
:1034D400136843F010031360032000F057FF0F201C
:1034E400FFF7CEFFFFF7B8FC002008BD0020024024
:1034F400034A1168034B1B780B441360704700BFE9
:103504007C050020A4000020014B1868704700BF10
:103514007C05002082B0084B1B68084AA2FB0323E9
:103524005B0A00FB03F3019300BF019B5A1E019247
:10353400002BF9D102B07047AC000020D34D6210CB
:10354400002800F0F18170B582B00446036813F0DE
:10355400010F2CD0AA4B5B6803F00C03042B1DD085
:10356400A74B5B6803F00C03082B12D06368B3F518
:10357400803F41D0002B55D103F1804303F5043340
:103584001A6822F480321A601A6822F480221A60BF
:1035940037E09B4B5B6813F4803FE7D0984B1B6884
:1035A40013F4003F03D06368002B00F0BF8123684D
:1035B40013F0020F75D0924B5B6813F00C0F5FD0C1
:1035C4008F4B5B6803F00C03082B54D02369002B4A
:1035D40000F089808B4B01221A60FFF795FF0546A6
:1035E400874B1B6813F0020F74D1FFF78DFF401B4C
:1035F4000228F5D903209EE1814A136843F48033FD
:103604001360636843B3FFF77FFF05467C4B1B6879
:1036140013F4003FCBD1FFF777FF401B6428F5D9A3
:10362400032088E1B3F5A02F09D0754B1A6822F462
:1036340080321A601A6822F480221A60E1E703F1EA
:103644008043A3F53C331A6842F480221A601A6856
:1036540042F480321A60D4E7FFF756FF0546684B00
:103664001B6813F4003FA2D0FFF74EFF401B6428F1
:10367400F5D903205FE1624B5B6813F4803FA5D169
:103684005F4B1B6813F0020F03D02369012B40F03A
:103694004F815B4A136823F0F803616943EAC1036D
:1036A4001360236813F0080F32D0A369002B45D0B0
:1036B400554B01221A60FFF727FF0546504B5B6A02
:1036C40013F0020F21D1FFF71FFF401B0228F5D989
:1036D400032030E14A4A136823F0F803616943EA9E
:1036E400C1031360DDE7474B00221A60FFF70CFFAC
:1036F4000546434B1B6813F0020FD2D0FFF704FFBB
:10370400401B0228F5D9032015E10120FFF702FF31
:10371400236813F0040F00F09780394BDB6913F032
:10372400805F1DD1364BDA6942F08052DA61DB6981
:1037340003F080530193019B012512E0324B0022D8
:103744001A60FFF7E1FE05462D4B5B6A13F0020F8A
:10375400DED0FFF7D9FE401B0228F5D90320EAE0AA
:1037640000252A4B1B6813F4807F11D0E368012BDA
:1037740022D0002B38D103F1804303F504331A6AB5
:1037840022F001021A621A6A22F004021A6218E094
:103794001E4A136843F480731360FFF7B5FE0646B0
:1037A4001A4B1B6813F4807FE0D1FFF7ADFE801B3A
:1037B4006428F5D90320BEE0114A136A43F00103DB
:1037C4001362E36873B3FFF79FFE06460C4B1B6A54
:1037D40013F0020F37D1FFF797FE801B41F28833B5
:1037E4009842F3D90320A6E0052B11D0044B1A6AA2
:1037F40022F001021A621A6A22F004021A62E0E755
:103804000010024000004242800442420070004026
:103814004D4B1A6A42F004021A621A6A42F001021B
:103824001A62CEE7FFF770FE0646474B1B6A13F099
:10383400020F08D0FFF768FE801B41F288339842DC
:10384400F3D9032077E0E5B9E369002B72D03E4A4F
:10385400526802F00C02082A56D0022B17D03B4BB8
:1038640000221A60FFF750FE0446374B1B6813F022
:10387400007F47D0FFF748FE001B0228F5D903203C
:1038840059E0314AD36923F08053D361DCE72F4BED
:1038940000221A60FFF738FE05462B4B1B6813F015
:1038A400007F06D0FFF730FE401B0228F5D9032025
:1038B40041E0236AB3F5803F1AD023494B6823F4CF
:1038C4007413226A606A024313434B601F4B012244
:1038D4001A60FFF719FE04461B4B1B6813F0007FA8
:1038E4000ED1FFF711FE001B0228F5D9032022E0B8
:1038F400154A536823F40033A1680B435360DCE793
:10390400002018E0002016E0012B16D00E4B5B6857
:1039140003F48031226A914211D103F47013626A74
:1039240093420ED1002006E001207047012002E0FE
:10393400012000E0002002B070BD0120FBE701205F
:10394400F9E70120F7E700BF00100240600042429F
:103954000F4B5B6803F00C02082A01D00D48704736
:10396400C3F383420C498A5C13F4803F0BD0084BA9
:103974005B68C3F340430949CB5C064800FB02F093
:10398400B0FBF3F07047064800FB02F0704700BF3D
:103994000010024000127A009C540008AC54000845
:1039A40000093D00002800F0A08070B50D460446D3
:1039B400524B1B6803F007038B420BD24F4A136828
:1039C40023F007030B431360136803F007038B42D0
:1039D40040F08D80236813F0020F17D013F0040F0A
:1039E40004D0474A536843F4E0635360236813F0F8
:1039F400080F04D0424A536843F460535360404A6A
:103A0400536823F0F003A1680B435360236813F059
:103A1400010F31D06368012B20D0022B25D0384A06
:103A2400126812F0020F64D035494A6822F003028A
:103A340013434B60FFF768FD0646314B5B6803F0A8
:103A44000C036268B3EB820F16D0FFF75DFD801B99
:103A540041F288339842F0D9032045E0284A12689D
:103A640012F4003FE0D101203EE0254A126812F032
:103A7400007FD9D1012037E0204B1B6803F00703F6
:103A8400AB420AD91D4A136823F007032B43136082
:103A9400136803F00703AB422DD1236813F0040F1E
:103AA40006D0174A536823F4E063E1680B4353607C
:103AB400236813F0080F07D0114A536823F46053A6
:103AC400216943EAC1035360FFF742FF0C4B5B6873
:103AD400C3F303130B4AD35CD8400B4B18600B4B56
:103AE4001868FFF7CDFC002070BD0120704701204D
:103AF400FAE70120F8E70120F6E700BF00200240C2
:103B040000100240B0540008AC000020A8000020BF
:103B1400014B1868704700BFAC00002008B5FFF7E0
:103B2400F7FF044B5B68C3F30223034AD35CD8401A
:103B340008BD00BF00100240C054000808B5FFF7DC
:103B4400E7FF044B5B68C3F3C223034AD35CD8404A
:103B540008BD00BF00100240C0540008F0B482B099
:103B640000252C46ABE0854FBB4210D007D9844FCB
:103B7400BB420CD007F58037BB4208D013E0A7F551
:103B84008017BB4203D007F57027BB4207D18B686F
:103B9400002B60D0012B59D04261082503E0A7F522
:103BA4008017BB42F3D0FF2E57D88446FF2E57D838
:103BB400A200DCF800300F27974023EA070305FA38
:103BC40002F21343CCF800304B6813F0805F75D0D9
:103BD4006C4B9A6942F001029A619B6903F00103FC
:103BE4000193019BA208971C674B53F827C004F06C
:103BF40003039F000F23BB402CEA030C634B984242
:103C040034D003F58063984200F0948003F5806318
:103C1400984200F0918003F58063984200F08E8012
:103C240003F58063984200F08B8003F5806398422B
:103C34001AD006231BE0CD68B5E7CD680435B2E79A
:103C4400CD680835AFE7CD680C35ACE702610825CF
:103C5400A9E70025A7E70425A5E700F1040CA5E7DB
:103C6400A4F108029200A4E7052300E00023BB406E
:103C740043EA0C030232444F47F822304B6813F4F2
:103C8400801F5FD0424A9368334393604B6813F4B8
:103C9400001F5DD03E4AD3683343D3604B6813F4AE
:103CA400003F5BD03A4A5368334353604B6813F484
:103CB400803F59D0364A13681E43166001340B689E
:103CC40033FA04F256D00122A24003EA020632EA91
:103CD4000303F3D14B68122B3FF645AF122B3FF68B
:103CE40062AF01A757F823F0933B00083B3C000860
:103CF400453C0008573C0008AB3B0008AB3B0008C0
:103D0400AB3B0008AB3B0008AB3B0008AB3B0008F7
:103D1400AB3B0008AB3B0008AB3B0008AB3B0008E7
:103D2400AB3B0008AB3B0008AB3B00083F3C000842
:103D34004B3C000801239AE7022398E7032396E704
:103D4400042394E7124A936823EA060393609DE7E9
:103D54000F4AD36823EA0603D3609FE70C4A5368EB
:103D640023EA06035360A1E7094A136823EA060617
:103D74001660A3E702B0F0BC704700BF0000221039
:103D84000000311000100240000001400008014012
:103D9400000401400AB101617047090401617047E0
:103DA400C36801EA030221EA030141EA0241016115
:103DB400704770B4066CC56B0124B4406C60046831
:103DC40063604368102B05D0036899600368DA6068
:103DD40070BC704703689A600368D960F8E7000014
:103DE40000283AD010B4024600681D4B984229D8E6
:103DF4001C4B03441C49A1FB03131B099B001364C4
:103E04001A4BD363022382F82130016821F47F51D5
:103E140021F03001536894682343D4682343146920
:103E240023435469234394692343D46923430B43B1
:103E3400036000209063012382F8213082F820007F
:103E440010BC70470A4B03440749A1FB03131B0929
:103E54009B001364074BD363D4E70120704700BF72
:103E640007040240F8FFFDBFCDCCCCCC00000240DB
:103E7400F8FBFDBF0004024038B5044690F820006A
:103E8400012832D0012084F8200094F82100C0B227
:103E9400012804D0002384F82030022038BD0220F9
:103EA40084F821000020A0632568286820F0010020
:103EB40028602046FFF77DFFE36A5BB12268136840
:103EC40043F00E0313602268136843F00103136088
:103ED4000020E3E72268136823F0040313602268D8
:103EE400136843F00A031360EDE70220D6E790F865
:103EF4002130DBB2022B06D004238363002380F835
:103F04002030012070470268136823F00E03136009
:103F14000268136823F001031360036CC16B012270
:103F240002FA03F34B6080F82120002380F820304C
:103F34001846704708B590F82130DBB2022B03D045
:103F440004238363012008BD0268136823F00E0371
:103F540013600268136823F00103136003684C4A7A
:103F640093424ED9783A934224D01432934230D0BB
:103F7400143293422FD0143293422FD014329342EE
:103F84002FD0143293422FD0143293422FD002F503
:103F9400627293422ED0143293422DD01432934243
:103FA4002CD01432934202D04FF4803203E04FF409
:103FB400805200E00122374B5A60012380F82130FF
:103FC400002380F82030436B002B5ED098470020FC
:103FD400B9E71022EFE74FF48072ECE74FF4805218
:103FE400E9E74FF48032E6E74FF48012E3E74FF05D
:103FF4008072E0E70122DEE71022DCE74FF48072F2
:10400400D9E7254A934224D01432934225D014325E
:10401400934224D01432934224D01432934224D0B5
:104024001432934224D01432934224D002F56272A3
:10403400934223D01432934222D01432934221D09B
:104044001432934202D04FF4803203E04FF4805292
:1040540000E00122114B5A60AFE71022FAE74FF457
:104064008072F7E74FF48052F4E74FF48032F1E7BF
:104074004FF48012EEE74FF08072EBE70122E9E79C
:104084001022E7E74FF48072E4E700205BE700BF0B
:104094008000024000040240080002400000024088
:1040A40038B5C36B1A6804682568016C04238B4017
:1040B400134200F09B8015F0040F00F097802368F2
:1040C40013F0200F03D1236823F004032360036853
:1040D400AA4A934246D9783A934224D0143293425E
:1040E40028D01432934227D01432934227D014326A
:1040F400934227D01432934227D01432934227D0CC
:1041040002F56272934226D01432934225D01432BF
:10411400934224D01432934202D04FF4802203E01D
:104124004FF4804200E00422954B5A60C36A03B105
:10413400984738BD4022F7E74FF48062F4E74FF424
:104144008042F1E74FF48022EEE74FF48002EBE780
:104154004FF08062E8E70422E6E74022E4E74FF408
:104164008062E1E7874A934224D01432934225D0F7
:104174001432934224D01432934224D01432934202
:1041840024D01432934224D01432934224D002F522
:104194006272934223D01432934222D01432934257
:1041A40021D01432934202D04FF4802203E04FF422
:1041B400804200E00422744B5A60B7E74022FAE7D9
:1041C4004FF48062F7E74FF48042F4E74FF4802223
:1041D400F1E74FF48002EEE74FF08062EBE7042250
:1041E400E9E74022E7E74FF48062E4E702238B40EB
:1041F400134200F0A38015F0020F00F09F802368A3
:1042040013F0200F06D1236823F00A03236001234F
:1042140080F821300368594A93424BD9783A934243
:1042240024D0143293422DD0143293422CD0143221
:1042340093422CD0143293422CD0143293422CD07B
:10424400143293422CD002F5627293422BD0143272
:1042540093422AD01432934229D01432934202D08A
:104264004FF4003203E04FF4005200E00222444BCA
:104274005A60002380F82030836A002B3FF459AF42
:10428400984756E72022F2E74FF40072EFE74FF425
:104294000052ECE74FF40032E9E74FF40012E6E78E
:1042A4004FF00072E3E70222E1E72022DFE74FF458
:1042B4000072DCE7334A934224D01432934225D06F
:1042C4001432934224D01432934224D014329342B1
:1042D40024D01432934224D01432934224D002F5D1
:1042E4006272934223D01432934222D01432934206
:1042F40021D01432934202D04FF4003203E04FF441
:10430400005200E00222204B5A60B2E72022FAE772
:104314004FF40072F7E74FF40052F4E74FF4003221
:10432400F1E74FF40012EEE74FF00072EBE70222E0
:10433400E9E72022E7E74FF40072E4E7082303FAF1
:1043440001F111423FF4F5AE15F0080F3FF4F1AE60
:10435400236823F00E032360026CC16B012303FA6C
:1043640002F24A60836380F82130002380F8203011
:10437400036B002B3FF4DDAE9847DAE68000024081
:10438400000402400800024000000240074AD368CB
:1043940023F4E0631B041B0C000200F4E0600343FD
:1043A40043F0BF6343F40033D360704700ED00E093
:1043B40030B4174BDB68C3F30223C3F10704042CA6
:1043C40028BF04241D1D062D18D9033B4FF0FF35CB
:1043D40005FA04F421EA0401994005FA03F322EAF8
:1043E4000303194300280BDB0901C9B200F1604043
:1043F40000F5614080F8001330BC70470023E5E706
:1044040000F00F000901C9B2024B1954F4E700BFD0
:1044140000ED00E014ED00E0002807DB00F01F02CF
:10442400400901239340024A42F82030704700BFFC
:1044340000E100E00138B0F1807F0AD2064B5860F9
:10444400064AF02182F823100020986007221A609F
:1044540070470120704700BF10E000E000ED00E06D
:104464007047000010B503460C4A0D490D4800681A
:1044740040B10C4800680344521A934206D8094AD2
:10448400136010BD0748084C0460F2E7FBF7F4FE24
:104494000C2303604FF0FF30F3E700BF00C000209F
:1044A4000004000010050020780700200120704758
:1044B40008B5FBF7E1FE162303604FF0FF3008BD9B
:1044C40008B54FF0FF31FFF7F3FFFEE770B50C4678
:1044D40016460025B54207DAAFF30080214601F8FD
:1044E400010B01350C46F5E7304670BD70B50C463E
:1044F40016460025B54205DA14F8010BAFF3008027
:104504000135F7E7304670BD4FF0FF3070474FF488
:1045140000534B6000207047012070470020704713
:1045240000B58DB00023089309930A930B9303936A
:1045340004930593069307930193029320484FF045
:10454400804202604722426083604FF47A72C26004
:1045540003618361FEF71AFE30BB4FF48053089366
:1045640008A91748FEF749FE08BB04230393502308
:10457400049300230593079303A91148FEF718FF3A
:10458400C0B900230193029301A90D48FEF73AFF35
:1045940098B91C20FFF740FF022211461C20FFF7A8
:1045A40007FF0DB05DF804FBFEF76AFAD5E7FEF7E6
:1045B40067FADAE7FEF764FAE3E7FEF761FAE8E799
:1045C4001006002000B587B00023029303930493E0
:1045D4000593009301931948194A026041F61F425A
:1045E400426083606322C260036180238361FEF7BB
:1045F400CDFDD0B94FF48053029302A90F48FEF7C2
:10460400FCFDA8B900230093019369460B48FEF70B
:10461400F9FE80B91D20FFF7FFFE022211461D207E
:10462400FFF7C6FE07B05DF804FBFEF729FAE1E7E1
:10463400FEF726FAE6E7FEF723FAEBE7C8050020C3
:104644000004004000B587B0002302930393049351
:104654000593009301931948194A026041F61F42D9
:10466400426083600122C260036180238361FEF79C
:104674008DFDD0B94FF48053029302A90F48FEF781
:10468400BCFDA8B900230093019369460B48FEF7CB
:10469400B9FE80B91E20FFF7BFFE002211461E207E
:1046A400FFF786FE07B05DF804FBFEF7E9F9E1E7E2
:1046B400FEF7E6F9E6E7FEF7E3F9EBE7800500200D
:1046C4000008004000B589B00023049305930693C5
:1046D40007930368B3F1804F08D0224A934223D052
:1046E400214A934233D009B05DF804FB03F5043347
:1046F400DA6942F00102DA61DA6902F00102009239
:10470400009A9A6942F004029A619B6903F00403D7
:104714000193019B0123049300230593069304A9A9
:104724001248FFF71BFADEE7114BDA6942F0020286
:10473400DA61DB6903F002030293029B0022114653
:104744001D20FFF735FE1D20FFF766FECBE7084B63
:10475400DA6942F00402DA61DB6903F004030393CB
:10476400039BC0E70004004000080040000801402B
:104774000010024008B50E480E4B03604FF4E133BD
:10478400436000238360C36003610C224261836140
:10479400C36100F0EFF940B9012211462520FFF76B
:1047A40007FE2520FFF738FE08BDFEF769F9F3E799
:1047B400280700200038014008B50E480E4B03605E
:1047C4004FF41653436000238360C36003610C22DB
:1047D40042618361C36100F0CDF940B90022114602
:1047E4002720FFF7E5FD2720FFF716FE08BDFEF79B
:1047F40047F9F3E7580600200048004070B588B038
:104804000446002304930593069307930368534ACD
:10481400934204D0524A934250D008B070BD514BD9
:104824009A6942F480429A619A6902F48042009241
:10483400009A9A6942F004029A619B6903F00403A6
:104844000193019B4FF40073049302230593032304
:104854000793454E04A93046FFF780F94FF480636F
:10486400049300250595069504A93046FFF776F9CB
:104874003E483F4B03601023436085608023C36040
:10488400056145618561C561FFF7AAFA98B9374B9F
:10489400A3635C62002211462520FFF789FD2520D1
:1048A400FFF7BAFD022211462520FFF781FD2520DE
:1048B400FFF7B2FDB1E7FEF7E3F8E8E7294BDA6961
:1048C40042F48022DA61DA6902F480220292029AC6
:1048D4009A6942F010029A619B6903F010030393F2
:1048E400039B4FF4806304930223059303230793EC
:1048F400204E04A93046FFF731F94FF400630493C6
:1049040000250595069504A93046FFF727F91A4AAC
:10491400536823F0300343F0E06343F01003536023
:104924001648174B03601023436085608023C360DF
:10493400056145618561C561FFF752FA58B90F4BAE
:10494400A3635C62002211462720FFF731FD272074
:10495400FFF762FD61E7FEF793F8F0E700380140E6
:10496400004800400010024000080140E406002016
:10497400440002400010014000000140A006002055
:104984001C000240026802F10C0353E8003F23F0CC
:10499400C0030C3242E800310029F3D1202380F80F
:1049A40041307047026802F10C0353E8003F23F4DE
:1049B40090730C3242E800310029F3D1026802F10D
:1049C400140353E8003F23F00103143242E800319A
:1049D4000029F3D1036B012B05D0202380F842304A
:1049E400002303637047026802F10C0353E8003F9D
:1049F40023F010030C3242E800310029F3D1ECE734
:104A040090F84130DBB2212B01D00220704783683B
:104A1400B3F5805F17D0036A5A1C02621A780368E0
:104A24005A60C38C9BB2013B9BB2C3844BB90268EE
:104A3400D36823F08003D3600268D36843F0400353
:104A4400D360002070470369002BE4D1036A1B88FC
:104A54000268C3F308035360036A02330362E0E7A6
:104A640010B504460268136923F44053C1680B432C
:104A7400136183680269134342691A430168CB686E
:104A840023F4B05323F00C031343CB60026853693F
:104A940023F4407381690B4353610268124B9A42B9
:104AA4001FD0FFF73BF800EB800303EB830362683E
:104AB4009200B3FBF2F20D48A0FB023149096423D2
:104AC40003FB11231B013233A0FB03235B0903F017
:104AD400F00202EB011203F00F03216813448B6010
:104AE40010BDFFF72BF8DEE7003801401F85EB51BE
:104AF4002DE9F84305460F4616469946DDF8208011
:104B04002C68246837EA04030CBF01240024B4424F
:104B14002DD1B8F1FF3FF3D0B8F1000F05D0FEF767
:104B2400F3FCA0EB09004045EAD92A6802F10C0322
:104B340053E8003F23F4D0730C3242E800310029DB
:104B4400F3D12A6802F1140353E8003F23F0010370
:104B5400143242E800310029F3D1202385F8413092
:104B640085F84230002385F84030032000E000201F
:104B7400BDE8F88360B310B5044690F8413013B330
:104B8400242384F841302268D36823F40053D3608B
:104B94002046FFF765FF2268136923F490431361ED
:104BA4002268536923F02A0353612268D36843F4CB
:104BB4000053D36000206064202384F8413084F8DB
:104BC4004230606310BD80F84030FFF717FED7E72E
:104BD400012070472DE9F04182B01E4690F8413023
:104BE400DBB2202B4BD104460D46904600294AD017
:104BF4000AB9012044E000234364212380F84130B2
:104C0400FEF782FC0746A4F82480A4F82680A36853
:104C1400B3F5805F02D04FF000080FE02369FBB1C9
:104C24004FF000080AE038F8023B2268C3F3080397
:104C34005360E28C92B2013A92B2E284E38C9BB26A
:104C44008BB100963B46002280212046FFF750FF9F
:104C5400D8B9002DE7D015F8012B23685A60E8E78E
:104C6400A8460025EAE700963B460022402120465C
:104C7400FFF73EFF58B9202384F8413000E00220BA
:104C840002B0BDE8F0810120FAE70320F8E7032031
:104C9400F6E7000038B590F84130DBB2202B30D174
:104CA400044600292FD00AB9012038BD016282844C
:104CB400C28400234364212084F84100A06B134D77
:104CC4008562A06B124DC562A06B124D0563A06B8B
:104CD400436320681346021DA06BFFF7CDF82368D9
:104CE4006FF040021A60226802F1140353E8003F97
:104CF40043F08003143242E800310029F3D100204C
:104D0400D3E70220D1E70120CFE700BF1D4D000803
:104D1400854D0008914D000808B50346406A1B689C
:104D24001B6813F0200F1AD10023C384026802F118
:104D3400140353E8003F23F08003143242E80031A7
:104D44000029F3D1026802F10C0353E8003F43F059
:104D540040030C3242E800310029F3D108BDFDF7CD
:104D64004BFDFBE708B50168CA6822F04002CA603F
:104D7400202280F84120FDF73FFD002008BD704748
:104D840008B5406AFFF7FBFF08BD704710B5446AD9
:104D940023685A6994F84130DBB2212B10D0236880
:104DA4005A6902F0400294F84230DBB2222B11D04F
:104DB400636C43F0100363642046FFF7E6FF10BD05
:104DC40002F08002002AEAD00023E3842046FFF7A1
:104DD400D9FDE4E7002AEBD00023E3852046FFF762
:104DE400E1FDE5E708B5406A0023C385C384FFF706
:104DF400CCFF08BD704790F84230DBB2222B69D15A
:104E04008368B3F5805F4FD0826AB3F5805F04D0C6
:104E1400002B56D10369002B53D103685B681370D0
:104E2400836A01338362C38D9BB2013B9BB2C3850A
:104E3400002B51D100B583B00268D36823F020035E
:104E4400D3600268D36823F48073D3600268536923
:104E540023F001035361202380F84230002343638D
:104E6400036B012B33D100230363026802F10C03AB
:104E740053E8003F23F010030C3242E800310029CC
:104E8400F3D103681A6812F0100F06D000220192C1
:104E94001A6801925B680193019B818DFFF7AAFF59
:104EA400002003B05DF804FB0269002AACD1826AD9
:104EB40003685B68C3F308031380836A0233836265
:104EC400B1E703685B6803F07F031370A8E7FDF79D
:104ED400C1FDE5E7022070470020704730B583B07C
:104EE400044602681368D068516913F00F0505D1B0
:104EF40013F0200F02D010F0200F19D12DB111F0B2
:104F0400010119D110F4907F16D1216B01297DD0B4
:104F140013F0800F03D010F0800F40F0188113F0CD
:104F2400400F03D010F0400F40F0158103B030BDA6
:104F34002046FFF760FFF9E713F0010F06D010F4E5
:104F4400807F03D0626C42F00102626413F0040FAC
:104F540004D019B1626C42F00202626413F0020FD1
:104F640004D019B1626C42F00402626413F0080FB9
:104F740007D010F0200F00D119B1626C42F0080282
:104F84006264626C002AD1D013F0200F02D010F0BA
:104F9400200F29D123685B6903F04003626C12F08F
:104FA400080F00D163B32046FFF7FCFC23685B695C
:104FB40013F0400F20D0226802F1140353E8003F9D
:104FC40023F04003143242E800310029F3D1E36BAB
:104FD40073B1634A5A63E06BFEF7ACFF0028A5D0B7
:104FE400E06B436B9847A1E72046FFF704FFD1E746
:104FF4002046FFF7CAFE99E72046FFF7C6FE95E76D
:105004002046FFF7C2FE002363648FE713F0100FFE
:105014003FF47EAF10F0100F3FF47AAF00230193FA
:105024001368019353680193019B536913F0400F74
:1050340051D0E26B13685B689BB2002B3FF476AFF0
:10504400A18D99427FF672AFE3859369202B37D007
:10505400226802F10C0353E8003F23F480730C32FE
:1050640042E800310029F3D1226802F1140353E825
:10507400003F23F00103143242E800310029F3D148
:10508400226802F1140353E8003F23F04003143272
:1050940042E800310029F3D1202384F84230002370
:1050A4002363226802F10C0353E8003F23F010034A
:1050B4000C3242E800310029F3D1E06BFEF717FF10
:1050C40002236363A18DE38D9BB2C91A89B2204682
:1050D400FFF790FE2AE7A18DE38D9BB2C91A89B22E
:1050E400E38D9BB2002B3FF421AF00293FF41EAFA8
:1050F400226802F10C0353E8003F23F490730C324E
:1051040042E800300028F3D1226802F1140353E886
:10511400003F23F00103143242E800300028F3D1A9
:10512400202384F8423000232363226802F10C0315
:1051340053E8003F23F010030C3242E8003000280B
:10514400F3D1022363632046FFF754FEEEE62046C4
:10515400FFF756FCEAE62046FFF704FEE6E600BF4A
:10516400E94D000881628285C285002343642223BD
:1051740080F84230036923B10268D36843F4807332
:10518400D3600268536943F0010353610268D36832
:1051940043F02003D3600020704708B590F84230F4
:1051A400DBB2202B08D149B10AB9012008BD002384
:1051B4000363FFF7D7FFF9E70220F7E70120F5E7DC
:1051C40000B583B00E4B5A6942F001025A615B6923
:1051D40003F001030193019B002211460C20FFF709
:1051E400E7F80C20FFF718F9002211460E20FFF70C
:1051F400DFF80E20FFF710F903B05DF804FB00BFE1
:1052040000100240FFF72CF90B480C490C4A00230C
:1052140002E0D458C4500433C4188C42F9D3094A68
:10522400094C002301E013600432A242FBD3FBF7D4
:1052340029F8FDF7ABFC704700000020B000002007
:1052440098550008B000002074070020FEE7000015
:10525400F8B500BFF8BC08BC9E467047F8B500BF5F
:08526400F8BC08BC9E4670472F
:10526C00040000200020202020202020202028289E
:10527C00282828202020202020202020202020200A
:10528C00202020202088101010101010101010104A
:10529C00101010101004040404040404040404107A
:1052AC001010101010104141414141410101010108
:1052BC0001010101010101010101010101010101D2
:1052CC0010101010101042424242424202020202DE
:1052DC0002020202020202020202020202020202A2
:1052EC001010101020000000000000000000000052
:1052FC0000000000000000000000000000000000A2
:10530C000000000000000000000000000000000091
:10531C000000000000000000000000000000000081
:10532C000000000000000000000000000000000071
:10533C000000000000000000000000000000000061
:10534C000000000000000000000000000000000051
:10535C000000000000000000000000000000000041
:10536C000000000000000000000000000000000031
:10537C000000000000000000000000000000000021
:10538C000000000000000000000000000000000011
:10539C000000000000000000000000000000000001
:1053AC0000000000000000000000000000000000F1
:1053BC0000000000000000000000000000000000E1
:1053CC000000000000000000244750524D432C25E3
:1053DC0030326425303264253032642E30302C412A
:1053EC002C25732C25732C302E30302C302E303055
:1053FC002C2530326425303264253032642C2C2C30
:10540C00412A0000253032580D0A000053657420E3
:10541C007070735F6F6666736574203D20256C64D5
:10542C000A000000244750524D4300002C0000009D
:10543C004661696C20746F20736574207070735FA3
:10544C006F66667365742120496E76616C696420A1
:10545C00696E707574206173206E756D6265722E45
:10546C000A0000004661696C20746F20736574201B
:10547C004750524D4320646174612120496E76611E
:10548C006C6964204750524D432064617461210063
:10549C0002030405060708090A0B0C0D0E0F101069
:1054AC0001020000000000000000000001020304E3
:1054BC000607080900000000010203045245454E8E
:1054CC0054206D616C6C6F632073756363656564E8
:1054DC00656400002E2E2F2E2E2F2E2E2F2E2E2FCB
:1054EC002E2E2F2E2E2F2E2E2F2E2E2F6E65776CCE
:1054FC0069622F6C6962632F737472696E672F73A4
:10550C007472746F6B2E63002C2066756E637469F5
:10551C006F6E3A2000000000617373657274696FDE
:10552C006E2022257322206661696C65643A2066C0
:10553C00696C6520222573222C206C696E652025F0
:10554C0064257325730A0000232D302B20000000E6
:10555C00686C4C0065666745464700003031323355
:10556C003435363738394142434445460000000053
:10557C0030313233343536373839616263646566BD
:04558C00000000001B
:045590004D020008C0
:0455940025020008E4
:105598000400002000000000B453000894530008E1
:1055A8007453000800000000000000000000000024
:1055B80000000000000000000000000000000000E3
:1055C80000000000000000000000000000000000D3
:1055D80000000000000000000000000000000000C3
:1055E80000000000000000000000000000000000B3
:1055F800000000000C000000020000000200000093
:10560800D3070000323233372E383834302C4E006E
:10561800000000000000000031313030392E3234F3
:1056280030302C45000000000000000001000000A0
:105638008D01000001000000100000000024F400AB
:040000050800520994
:00000001FF
